:020000040800F2
:1000000000000220FD380008B5360008BB360008A5
:10001000C1360008C7360008CD36000800000000D1
:10002000000000000000000000000000419A0008ED
:10003000D336000800000000919C000805740008F9
:100040004D3900084D3900084D3900084D39000878
:100050004D3900084D3900084D3900084D39000868
:100060004D3900084D3900084D3900084D39000858
:100070004D3900084D3900084D3900084D39000848
:100080004D3900084D3900084D3900084D39000838
:100090004D3900084D3900084D3900084D39000828
:1000A0004D390008E13600084D3900084D39000887
:1000B0004D3900084D3900084D3900084D39000808
:1000C0004D3900084D3900084D3900084D390008F8
:1000D0004D3900084D3900084D3900084D390008E8
:1000E0004D3900084D3900084D3900084D390008D8
:1000F0004D3900084D3900084D3900084D390008C8
:100100004D3900084D3900084D3900084D390008B7
:100110004D3900084D3900084D3900084D390008A7
:100120004D3900084D3900084D3900084D39000897
:100130004D3900084D3900084D3900084D39000887
:100140004D3900084D3900084D3900084D39000877
:100150004D3900084D3900084D3900084D39000867
:100160004D3900084D3900084D3900084D39000857
:100170004D3900084D3900084D39000800000000D5
:080180004D3900084D3900085B
:1001900010B5054C237833B9044B13B10448AFF3C1
:1001A00000800123237010BD000200200000000029
:1001B000BCFA000808B5034B1BB103490348AFF371
:1001C000008008BD0000000004020020BCFA000806
:1001D00001F0FF01102A2BDB10F0070F08D010F8F8
:1001E000013B013A8B422DD010F0070F42B3F6D1FC
:1001F000F0B441EA012141EA014122F007047FF015
:1002000000070023F0E80256083C85EA010586EA6B
:10021000010685FA47F5A3FA87F586FA47F6A5FAA7
:1002200087F68EB9EED1F0BC01F0FF0102F00702B3
:1002300032B110F8013B013A83EA010313B1F8D15E
:100240000020704701387047002D06BF354603383F
:10025000073815F0010F07D1013015F4807F02BF78
:10026000013015F4C03F0130F0BC0138704700BFC9
:10027000034613F8012B002AFBD1181A01387047E6
:1002800081F0004102E000BF83F0004330B54FEA47
:1002900041044FEA430594EA050F08BF90EA020FB4
:1002A0001FBF54EA000C55EA020C7FEA645C7FEA47
:1002B000655C00F0E2804FEA5454D4EB5555B8BF6A
:1002C0006D420CDD2C4480EA020281EA030382EADB
:1002D000000083EA010180EA020281EA0303362D6D
:1002E00088BF30BD11F0004F4FEA01314FF4801C40
:1002F0004CEA113102D0404261EB410113F0004F52
:100300004FEA03334CEA133302D0524263EB430308
:1003100094EA050F00F0A780A4F10104D5F1200EA6
:100320000DDB02FA0EFC22FA05F2801841F1000101
:1003300003FA0EF2801843FA05F359410EE0A5F1D5
:1003400020050EF1200E012A03FA0EFC28BF4CF006
:10035000020C43FA05F3C01851EBE37101F00045BC
:1003600007D54FF0000EDCF1000C7EEB00006EEBC9
:100370000101B1F5801F1BD3B1F5001F0CD3490853
:100380005FEA30004FEA3C0C04F101044FEA4452AA
:1003900012F5800F80F09A80BCF1004F08BF5FEA31
:1003A000500C50F1000041EB045141EA050130BD11
:1003B0005FEA4C0C404141EB0101013C28BFB1F523
:1003C000801FE9D291F0000F04BF01460020B1FA6E
:1003D00081F308BF2033A3F10B03B3F120020CDA41
:1003E0000C3208DD02F1140CC2F10C0201FA0CF01F
:1003F00021FA02F10CE002F11402D8BFC2F1200C84
:1004000001FA02F120FA0CFCDCBF41EA0C01904039
:10041000E41AA2BF01EB0451294330BD6FEA040482
:100420001F3C1CDA0C340EDC04F11404C4F120026D
:1004300020FA04F001FA02F340EA030021FA04F37F
:1004400045EA030130BDC4F10C04C4F1200220FAD6
:1004500002F001FA04F340EA0300294630BD21FA14
:1004600004F0294630BD94F0000F83F4801306BFDA
:1004700081F480110134013D4EE77FEA645C18BFCE
:100480007FEA655C29D094EA050F08BF90EA020F65
:1004900005D054EA000C04BF1946104630BD91EA5D
:1004A000030F1EBF0021002030BD5FEA545C05D160
:1004B0004000494128BF41F0004130BD14F580049F
:1004C0003CBF01F5801130BD01F0004545F0FE4113
:1004D00041F470014FF0000030BD7FEA645C1ABF48
:1004E000194610467FEA655C1CBF0B46024650EA7F
:1004F000013406BF52EA033591EA030F41F40021AB
:1005000030BD00BF90F0000F04BF0021704730B530
:100510004FF4806404F132044FF000054FF0000105
:1005200050E700BF90F0000F04BF0021704730B5C6
:100530004FF4806404F1320410F0004548BF40429B
:100540004FF000013EE700BF42004FEAE2014FEAF0
:1005500031014FEA02701FBF12F07F4393F07F4FCB
:1005600081F06051704732F07F4208BF704793F0CE
:100570007F4F04BF41F40021704730B54FF46074E1
:1005800001F0004521F000411CE700BF50EA0102E4
:1005900008BF704730B54FF000050AE050EA01028D
:1005A00008BF704730B511F0004502D5404261EBFD
:1005B00041014FF4806404F132045FEA915C3FF43E
:1005C000D8AE4FF003025FEADC0C18BF03325FEADB
:1005D000DC0C18BF033202EBDC02C2F1200300FA8C
:1005E00003FC20FA02F001FA03FE40EA0E0021FAB1
:1005F00002F11444BDE600BF70B54FF0FF0C4CF49F
:10060000E06C1CEA11541DBF1CEA135594EA0C0F50
:1006100095EA0C0F00F0DEF82C4481EA030621EA8B
:100620004C5123EA4C5350EA013518BF52EA0335C6
:1006300041F4801143F4801338D0A0FB02CE4FF078
:100640000005E1FB02E506F00042E0FB03E54FF0A8
:100650000006E1FB03569CF0000F18BF4EF0010EA0
:10066000A4F1FF04B6F5007F64F5407404D25FEA9C
:100670004E0E6D4146EB060642EAC62141EA55514F
:100680004FEAC52040EA5E504FEACE2EB4F1FD0C91
:1006900088BFBCF5E06F1ED8BEF1004F08BF5FEA0F
:1006A000500E50F1000041EB045170BD06F00046C1
:1006B00046EA010140EA020081EA0301B4EB5C046E
:1006C000C2BFD4EB0C0541EA045170BD41F4801166
:1006D0004FF0000E013C00F3AB8014F1360FDEBF8B
:1006E000002001F0004170BDC4F10004203C35DA67
:1006F0000C341BDC04F11404C4F1200500FA05F3EA
:1007000020FA04F001FA05F240EA020001F000428A
:1007100021F0004110EBD37021FA04F642EB060100
:100720005EEA430E08BF20EAD37070BDC4F10C042A
:10073000C4F1200500FA04F320FA05F001FA04F2EE
:1007400040EA020001F0004110EBD37041F10001DA
:100750005EEA430E08BF20EAD37070BDC4F12005E5
:1007600000FA05F24EEA020E20FA04F301FA05F24D
:1007700043EA020321FA04F001F0004121FA04F2F5
:1007800020EA020000EBD3705EEA430E08BF20EAC5
:10079000D37070BD94F0000F0FD101F000464000FF
:1007A00041EB010111F4801F08BF013CF7D041EA81
:1007B000060195F0000F18BF704703F00046520085
:1007C00043EB030313F4801F08BF013DF7D043EA56
:1007D0000603704794EA0C0F0CEA135518BF95EA0C
:1007E0000C0F0CD050EA410618BF52EA4306D1D193
:1007F00081EA030101F000414FF0000070BD50EAB2
:10080000410606BF1046194652EA430619D094EA3B
:100810000C0F02D150EA013613D195EA0C0F05D125
:1008200052EA03361CBF104619460AD181EA030179
:1008300001F0004141F0FE4141F470014FF0000031
:1008400070BD41F0FE4141F4780170BD70B54FF0CC
:10085000FF0C4CF4E06C1CEA11541DBF1CEA13554C
:1008600094EA0C0F95EA0C0F00F0A7F8A4EB05042E
:1008700081EA030E52EA03354FEA013100F0888025
:100880004FEA03334FF0805545EA131343EA1263EE
:100890004FEA022245EA111545EA10654FEA0026A3
:1008A0000EF000419D4208BF964244F1FD0404F55C
:1008B000407402D25B084FEA3202B61A65EB0305B8
:1008C0005B084FEA32024FF480104FF4002CB6EB75
:1008D000020E75EB030E22BFB61A754640EA0C00F5
:1008E0005B084FEA3202B6EB020E75EB030E22BF35
:1008F000B61A754640EA5C005B084FEA3202B6EB76
:10090000020E75EB030E22BFB61A754640EA9C0034
:100910005B084FEA3202B6EB020E75EB030E22BF04
:10092000B61A754640EADC0055EA060E18D04FEAC2
:10093000051545EA16754FEA06164FEAC30343EA62
:1009400052734FEAC2025FEA1C1CC0D111F4801F2F
:100950000BD141EA00014FF000004FF0004CB6E728
:1009600011F4801F04BF01430020B4F1FD0C88BFC7
:10097000BCF5E06F3FF6AFAEB5EB030C04BFB6EBD2
:10098000020C5FEA500C50F1000041EB045170BDC5
:100990000EF0004E4EEA113114EB5C04C2BFD4EBF2
:1009A0000C0541EA045170BD41F480114FF0000E76
:1009B000013C90E645EA060E8DE60CEA135594EAF2
:1009C0000C0F08BF95EA0C0F3FF43BAF94EA0C0FF5
:1009D0000AD150EA01347FF434AF95EA0C0F7FF46A
:1009E00025AF104619462CE795EA0C0F06D152EABE
:1009F00003353FF4FDAE1046194622E750EA4106A2
:100A000018BF52EA43067FF4C5AE50EA41047FF4B2
:100A10000DAF52EA43057FF4EBAE12E74FF0FF3C17
:100A200006E000BF4FF0010C02E000BF4FF0010CE8
:100A30004DF804CD4FEA410C7FEA6C5C4FEA430C61
:100A400018BF7FEA6C5C1BD001B050EA410C0CBFB0
:100A500052EA430C91EA030F02BF90EA020F002012
:100A6000704710F1000F91EA030F58BF994208BF79
:100A700090422CBFD8176FEAE37040F00100704736
:100A80004FEA410C7FEA6C5C02D150EA013C07D18D
:100A90004FEA430C7FEA6C5CD6D152EA033CD3D0D8
:100AA0005DF8040B704700BF8446104662468C46D2
:100AB0001946634600E000BF01B5FFF7B7FF002805
:100AC00048BF10F1000F01BD4DF808EDFFF7F4FF2E
:100AD0000CBF012000205DF808FB00BF4DF808EDB9
:100AE000FFF7EAFF34BF012000205DF808FB00BFDC
:100AF0004DF808EDFFF7E0FF94BF012000205DF8FE
:100B000008FB00BF4DF808EDFFF7CEFF94BF0120B2
:100B100000205DF808FB00BF4DF808EDFFF7C4FFAB
:100B200034BF012000205DF808FB00BF4FEA410CF4
:100B30007FEA6C5C02D150EA013C0AD14FEA430CD7
:100B40007FEA6C5C02D152EA033C02D14FF0000014
:100B500070474FF0010070474FEA410212F5001252
:100B600015D211D56FF47873B3EB625212D94FEAF4
:100B7000C12343F0004343EA505311F0004F23FADE
:100B800002F018BF404270474FF00000704750EA33
:100B9000013005D111F0004008BF6FF000407047F0
:100BA0004FF00000704700BF4A0011D212F500124A
:100BB00011D20DD56FF47873B3EB62520ED44FEAB5
:100BC000C12343F0004343EA505323FA02F0704735
:100BD0004FF00000704750EA013002D14FF0FF3073
:100BE00070474FF0000070474FEA4102B2F1E04316
:100BF00024BFB3F5001CDCF1FE5C0DD901F0004C04
:100C00004FEAC0024CEA5070B2F1004F40EB830053
:100C100008BF20F00100704711F0804F21D113F17F
:100C20003872BCBF01F00040704741F480114FEAB8
:100C30005252C2F11802C2F1200C10FA0CF320FA41
:100C400002F018BF40F001004FEAC1234FEAD3235E
:100C500003FA0CFC40EA0C0023FA02F34FEA4303C8
:100C6000CCE77FEA625307D150EA01331EBF4FF051
:100C7000FE4040F44000704701F0004040F0FE406C
:100C800040F40000704700BF53B94AB9002908BFBB
:100C900000281CBF4FF0FF314FF0FF3000F0A6B925
:100CA000ADF1080C6DE904CE00F03CF8DDF804E08D
:100CB000DDE9022304B0704738B500220023044662
:100CC0000D46FFF70BFF28B920462946BDE83840FE
:100CD00000F00AB8204605F1004100F005F8404256
:100CE00061EB410138BD00BFD0B50C4B0022064678
:100CF0000F46FFF781FCFFF757FF0446FFF702FCA2
:100D0000074B0022FFF778FC02460B463046394677
:100D1000FFF7BAFAFFF748FF2146D0BD0000F03DCB
:100D20000000F0412DE9F047089E0D4604460F46AD
:100D3000002B4AD18A42944665D9B2FA82F343B174
:100D400002FA03FCC3F120029F4020FA02F217438B
:100D50009C404FEA1C4E1FFA8CF5B7FBFEF1220CAB
:100D60000EFB117742EA074201FB05F090420AD9D7
:100D70001CEB020201F1FF3780F01C81904240F22F
:100D8000198102396244121AA4B2B2FBFEF00EFBC2
:100D9000102244EA024400FB05F5A5420AD91CEBE7
:100DA000040400F1FF3280F00781A54240F2048183
:100DB0006444023840EA0140641B00211EB1DC405B
:100DC0000023C6E90043BDE8F0878B4208D9002E16
:100DD00000F0ED800021C6E900050846BDE8F08777
:100DE000B3FA83F1002949D1AB4202D3824200F227
:100DF000F880841A65EB030201201746002EE2D02A
:100E0000C6E90047DFE702B9FFDEB2FA82F3002B42
:100E100040F090808A1A4FEA1C471FFA8CFE01218D
:100E2000B2FBF7F507FB1520220C42EA00420EFB4D
:100E300005F0904208D91CEB020205F1FF3802D2FE
:100E4000904200F2CB804546121AA4B2B2FBF7F0F2
:100E500007FB102244EA02440EFB00FEA64508D917
:100E60001CEB040400F1FF3202D2A64500F2BB8065
:100E70001046A4EB0E0440EA05409FE7C1F12007AD
:100E80008B4022FA07FC4CEA030C05FA01F420FA25
:100E900007F3FD404FEA1C492343B5FBF9F81FFA5D
:100EA0008CFE09FB18551C0C44EA054408FB0EF5A2
:100EB000A54202FA01F200FA01F00BD91CEB04047E
:100EC00008F1FF3A80F08880A54240F28580A8F1C1
:100ED00002086444641B9DB2B4FBF9F309FB13449C
:100EE00045EA044403FB0EFEA64508D91CEB0404A6
:100EF00003F1FF356CD2A6456AD9023B644443EA4C
:100F00000843A3FB0295A4EB0E04AC42C846AE46D0
:100F100056D353D056B1B0EB080264EB0E0404FA7A
:100F200007F7CA40CC401743C6E9007418460021B1
:100F3000BDE8F087C3F1200102FA03FC20FA01F2B8
:100F400025FA01F19D402A434FEA1C471FFA8CFE07
:100F5000B1FBF7F007FB1015110C41EA054100FB4E
:100F60000EF58D4204FA03F408D91CEB010100F1DF
:100F7000FF382FD28D422DD902386144491B92B2DD
:100F8000B1FBF7F507FB151142EA014205FB0EF133
:100F9000914208D91CEB020205F1FF3816D29142AA
:100FA00014D9023D6244521A45EA004138E73146FD
:100FB000304608E73946E6E61046FBE64845A9D242
:100FC000B9EB020865EB0C0E013BA3E74546EAE7E7
:100FD0002B4694E74046D1E7D0467BE7023D62448A
:100FE00032E708460AE76444023842E7704700BF28
:100FF000B0B584B000AF78607B68013B032B4BD861
:1010000001A252F823F000BF19100008391000089F
:1010100059100008791000086D4B1B78002B02D086
:101020004FF6FF7200E000226A4B1B685A62684B61
:101030001A78694B1A702FE0684B1B78002B02D08E
:101040004FF6FF7200E00022654B1B685A62634B4B
:101050001A78614B1A701FE0624B1B78002B02D08C
:101060004FF6FF7200E000225F4B1B685A625D4B37
:101070001A78594B1A700FE05C4B1B78002B02D08A
:101080004FF6FF7200E00022594B1B685A62574B23
:101090001A78514B1A7000BF4F4B1B78184600F05E
:1010A000E7F807F007FDF86032E07B68013B032BAF
:1010B00026D801A252F823F0C9100008D710000862
:1010C000E5100008F3100008424B1B685B6A9AB2F7
:1010D000484B1A8014E0424B1B685B6A9AB2454B3E
:1010E0001A800DE0404B1B685B6A9AB2414B1A8034
:1010F00006E03F4B1B685B6A9AB23E4B1A8000BF0A
:101100003C4B1B88344A12781146184600F07CF894
:1011100007F0D0FC0246FB68D31A142BC5D9364B16
:101120001B681846FFF7FEF925A3D3E90023FFF754
:1011300063FA02460B4614461D46274B1B78002BCC
:1011400008D02C4B1B88C3F57F43FF331846FFF7AD
:10115000E9F904E0274B1B881846FFF7D3F922462C
:101160002B46FFF793F802460B461046194616A386
:10117000D3E90023FFF76AFB02460B4610461946E7
:101180004FF000021D4BFFF737FA02460B461046A0
:1011900019464FF000021A4BFFF72EFA02460B4693
:1011A0001849C1E90023174BD3E9002343EC172B5F
:1011B000B0EE470AF0EE670A1037BD46B0BD00BF7B
:1011C00000000000E0FFEF400000000000F3E640F8
:1011D00000000020880200203002002001000020D2
:1011E000D00200200200002018030020030000208D
:1011F000A8030020280200202C0200200000494003
:1012000000004E402002002080B483B000AF0346AF
:101210000A46FB8013467B717B7983F00103DBB2C6
:10122000002B0DD0104B1B88FA889A4204D20F4B2A
:101230001B6801330D4A13600B4AFB8813800CE0D6
:10124000094B1B88FA889A4204D9084B1B68013362
:10125000064A1360044AFB88138000BF0C37BD4662
:101260005DF8047B704700BF2A0200202C0200209A
:1012700080B483B000AF0346FB71094B00221A60B3
:10128000FB79002B02D04FF6FF7200E00022054BE5
:101290001A8000BF0C37BD465DF8047B704700BF65
:1012A0002C0200202A02002080B500AF1E4918A39E
:1012B000D3E90023C1E900231B4917A3D3E9002385
:1012C000C1E90223184916A3D3E90023C1E9042385
:1012D000164BD3E900231449C1E90823144BD3E981
:1012E00000231149C1E90A23124BD3E900230E4917
:1012F000C1E90C23104BD3E900230B49C1E90E23AC
:10130000094801F097FB00BF80BD00BFAFF300802C
:10131000333333333333D33F9A9999999999C93FEA
:101320007B14AE47E17A743FD8040020700500209A
:1013300078050020800500208805002080B500AFDA
:1013400002F006FB00F08EF800F0E8FB00F020F958
:1013500000F076F900F0C8F900F01AFA00F0F0FA9F
:1013600000F096FA00F04EFB00F0E4F800F0ACFB61
:101370002B4801F049FB2B4B1B686422DA63294B95
:101380001B6864221A64284B1B6864225A63274B2B
:101390001B6864225A630821224804F0FBFC0C21DC
:1013A000204804F0F7FC00211F4804F0F3FC002162
:1013B0001E4804F0EFFC04211D4804F059FE0421EE
:1013C0001C4804F055FE04211B4804F051FE042182
:1013D0001A4804F04DFE1A4B1B68DA68184B1B685C
:1013E00042F02002DA6006F027F8164A0121C820F0
:1013F00006F019F90346144A1360144A00211448F0
:1014000006F064F80346134A1360134A0021134898
:1014100006F05CF80346124A136006F031F8FEE766
:101420003402002060030020F00300203804002074
:1014300088020020D002002018030020A80300200A
:101440008004002050FB0008D004002008FB0008A6
:10145000091E0008C80400202CFB0008E11E00083B
:10146000CC04002080B594B000AF07F120033022F7
:101470000021184609F055FE07F10C0300221A60FE
:101480005A609A60DA601A610023BB60274B1B6CBC
:10149000264A43F080531364244B1B6C03F08053A3
:1014A000BB60BB6800237B60214B1B68204A43F470
:1014B000804313601E4B1B6803F480437B607B6892
:1014C00002233B620123FB6210233B630223BB63C5
:1014D0000023FB6308233B6440237B640223BB643B
:1014E0000423FB6407F12003184603F0AFFE034614
:1014F000002B01D000F010FD0F23FB6002233B61A5
:10150000A0237B610023BB610023FB6107F10C0377
:101510000021184604F012F90346002B01D000F018
:10152000FBFC00BF5037BD4680BD00BF0038024005
:101530000070004080B500AF124B134A1A60114B87
:10154000124A5A600F4B00229A600E4B0022DA605A
:101550000C4B4FF480421A610A4B00225A61094B2E
:1015600000229A61074B0022DA61064B00221A62C0
:10157000044802F0C7FC0346002B01D000F0CCFC6D
:1015800000BF80BD3402002000540040801A0600D5
:1015900080B58CB000AF07F10C032422002118465F
:1015A00009F0BFFD3B1D00221A605A60224B234AFE
:1015B0001A60214B00225A601F4B00229A601E4B7A
:1015C0004FF6FF72DA601C4B00221A611A4B0022A0
:1015D0005A61194B00229A610323FB6000233B618F
:1015E00001237B610023BB610023FB6100233B627D
:1015F00001237B620023BB620023FB6207F10C0323
:1016000019460D4804F08EFC0346002B01D000F073
:1016100083FC00237B600023BB603B1D194606480A
:1016200005F072FB0346002B01D000F075FC00BFF3
:101630003037BD4680BD00BF880200200000014059
:1016400080B58CB000AF07F10C03242200211846AE
:1016500009F067FD3B1D00221A605A60204B214AA9
:101660001A601F4B00225A601D4B00229A601C4BCF
:101670004FF6FF72DA601A4B00221A61184B0022F3
:101680009A610323FB6000233B6101237B610023FC
:10169000BB610023FB6100233B6201237B620023CB
:1016A000BB620023FB6207F10C0319460C4804F0EF
:1016B00039FC0346002B01D000F02EFC00237B6098
:1016C0000023BB603B1D1946054805F01DFB034682
:1016D000002B01D000F020FC00BF3037BD4680BD9C
:1016E000D00200200004004080B58CB000AF07F1AC
:1016F0000C0324220021184609F013FD3B1D002293
:101700001A605A60204B214A1A601F4B00225A600F
:101710001D4B00229A601C4B4FF6FF72DA601A4B89
:1017200000221A61184B00229A610323FB600023F8
:101730003B6101237B610023BB610023FB6100232C
:101740003B6201237B620023BB620023FB6207F143
:101750000C0319460C4804F0E5FB0346002B01D0AE
:1017600000F0DAFB00237B600023BB603B1D1946C1
:10177000054805F0C9FA0346002B01D000F0CCFB68
:1017800000BF3037BD4680BD180300200008004070
:1017900080B58EB000AF07F1280300221A605A60AE
:1017A0009A60DA6007F1200300221A605A603B1D3C
:1017B00000221A605A609A60DA601A615A619A616E
:1017C000314B324A1A60304B07225A602E4B0022AE
:1017D0009A602D4B6322DA602B4B00221A612A4B50
:1017E00000229A61284804F0BBF90346002B01D07F
:1017F00000F092FB4FF48053BB6207F128031946B7
:10180000214804F075FE0346002B01D000F084FB54
:101810001D4804F065FA0346002B01D000F07CFB64
:1018200000233B6200237B6207F120031946164820
:1018300005F06AFA0346002B01D000F06DFB60232F
:101840007B600023BB600023FB6000237B613B1DAA
:10185000082219460C4804F089FD0346002B01D0EC
:1018600000F05AFB3B1D0C221946074804F07EFD90
:101870000346002B01D000F04FFB034801F0B6FDFA
:1018800000BF3837BD4680BD60030020000C00401B
:1018900080B58CB000AF07F10C032422002118465C
:1018A00009F03FFC3B1D00221A605A60224B234A7C
:1018B0001A60214B00225A601F4B00229A601E4B77
:1018C0004FF6FF72DA601C4B00221A611A4B00229D
:1018D0005A61194B00229A610323FB6000233B618C
:1018E00001237B610023BB610023FB6100233B627A
:1018F00001237B620023BB620023FB6207F10C0320
:1019000019460D4804F00EFB0346002B01D000F0F1
:1019100003FB00237B600023BB603B1D1946064888
:1019200005F0F2F90346002B01D000F0F5FA00BFF4
:101930003037BD4680BD00BFA80300200004014031
:1019400080B58CB000AF07F1200300221A605A6006
:101950009A60DA603B1D00221A605A609A60DA6071
:101960001A615A619A61254B254A1A60234B072256
:101970005A60224B00229A60204B6322DA601F4B90
:1019800000221A611D4B00229A611C4804F0E8F8FD
:101990000346002B01D000F0BFFA4FF480533B62A6
:1019A00007F120031946154804F0A2FD0346002B59
:1019B00001D000F0B1FA114804F092F90346002B6F
:1019C00001D000F0A9FA60237B600023BB600023F4
:1019D000FB6000237B613B1D00221946074804F091
:1019E000C5FC0346002B01D000F096FA034801F035
:1019F000FDFC00BF3037BD4680BD00BFF0030020B6
:101A00000040014080B58CB000AF07F120030022F8
:101A10001A605A609A60DA603B1D00221A605A60B0
:101A20009A60DA601A615A619A61254B254A1A60F8
:101A3000234B07225A60224B00229A60204B6322DC
:101A4000DA601F4B00221A611D4B00229A611C486C
:101A500004F086F80346002B01D000F05DFA4FF445
:101A600080533B6207F120031946154804F040FDFE
:101A70000346002B01D000F04FFA114804F030F972
:101A80000346002B01D000F047FA60237B6000235F
:101A9000BB600023FB6000237B613B1D00221946D5
:101AA000074804F063FC0346002B01D000F034FA31
:101AB000034801F09BFC00BF3037BD4680BD00BF2E
:101AC000380400200018004080B500AF114B124AC6
:101AD0001A60104B4FF4E1325A600E4B00229A60AC
:101AE0000C4B0022DA600B4B00221A61094B0422D6
:101AF0005A61084B00229A61064B0022DA610548C0
:101B000005F092F90346002B01D000F005FA00BF62
:101B100080BD00BF800400200050004080B58CB024
:101B200000AF07F11C0300221A605A609A60DA6065
:101B30001A610023BB61404B1B6B3F4A43F010030B
:101B400013633D4B1B6B03F01003BB61BB690023A8
:101B50007B61394B1B6B384A43F080031363364B70
:101B60001B6B03F080037B617B6900233B61324B7D
:101B70001B6B314A43F0010313632F4B1B6B03F0C4
:101B800001033B613B690023FB602B4B1B6B2A4A23
:101B900043F002031363284B1B6B03F00203FB604B
:101BA000FB680023BB60244B1B6B234A43F00803F4
:101BB0001363214B1B6B03F00803BB60BB6800235E
:101BC0007B601D4B1B6B1C4A43F0040313631A4BD1
:101BD0001B6B03F004037B607B6800224FF46041C1
:101BE000164802F075F900224FF40041144802F043
:101BF0006FF94FF46043FB6101233B6200237B627A
:101C00000023BB6207F11C0319460C4801F0C4FF16
:101C10004FF40043FB6101233B6200237B620023FE
:101C2000BB6207F11C031946054801F0B5FF00BF70
:101C30003037BD4680BD00BF003802400010024072
:101C4000000402400000000080B586B000AFB882FA
:101C500087ED020B87ED001B3B7D423B182B00F20A
:101C6000A08001A252F823F0DF1C0008A31D000889
:101C7000A31D0008A31D0008A31D0008A31D000844
:101C8000151D0008A31D0008931D00089B1D0008DA
:101C9000031D0008A31D0008A31D0008A31D0008C4
:101CA000A31D0008271D0008F11C0008811D000865
:101CB000A31D0008A31D00084B1D0008CD1C000833
:101CC0005D1D00086F1D0008391D00089FED382BB1
:101CD0009FED371B97ED020B00F026F962E09FEDB8
:101CE000342B9FED351B97ED020B00F01DF959E0E9
:101CF0009FED2F2B9FED321B97ED020B00F014F997
:101D000050E09FED2B2B9FED301B97ED020B00F069
:101D10000BF947E09FED262B9FED2D1B97ED020B56
:101D200000F002F93EE09FED222B9FED2B1B97ED7B
:101D3000020B00F0F9F835E09FED1D2B9FED281BFD
:101D400097ED020B00F0F0F82CE09FED192B9FEDC2
:101D5000261B97ED020B00F0E7F823E09FED242B04
:101D60009FED131B9FED120B00F0DEF81AE09FEDC4
:101D7000222B9FED0F1B9FED0E0B00F0D5F811E00D
:101D80009FED0B2B9FED0A1B9FED090B00F0CCF88C
:101D900008E01B4B01221A7004E01A4B01221A7052
:101DA00000E000BF00BF1837BD4680BDAFF3008024
:101DB00000000000000000000000000000806640FD
:101DC00000000000008056400000000000E070406D
:101DD00000000000008046400000000000B073409A
:101DE0000000000000206C400000000000E06040A7
:101DF000333333333333D33F333333333333D3BFDB
:101E0000580500205905002080B586B000AF7860E5
:101E100000237B612B4B186807F108010023002287
:101E200005F074FC38613B69002B47D13B7A0133E4
:101E3000254A13441B7803F00403002B2DD0234BB9
:101E40001B78002B12D03B7A303BFB601F4B0022EB
:101E50001A70F868FEF766FB4FF000021C4BFEF7A5
:101E6000F5FC02460B461B49C1E900231A4B1B78BF
:101E7000002B12D03B7A303B7B61174B00221A704B
:101E80007869FEF74FFB4FF00002114BFEF7DEFCC6
:101E900002460B461149C1E900230E4B93ED007B2E
:101EA0000E4B93ED006BB0EE461AF0EE661AB0EEF4
:101EB000470AF0EE670AB868FFF7C6FE322005F061
:101EC00097FBA7E7D004002080FB000858050020FE
:101ED000000008406005002059050020680500202A
:101EE00080B582B000AF786000F0FCFF0A2005F0FA
:101EF0007FFBF9E780B582B000AF78607B681B6834
:101F0000044A934201D101F045FD00BF0837BD46A8
:101F100080BD00BF0044014080B400AF72B600BF76
:101F2000FEE70000000000002DE9B04F94B000AFC4
:101F300087ED060B87ED041B87ED022B4FF00002A7
:101F4000954BD7E90401FEF7A1F902460B4610466E
:101F500019468FA3D3E90023FEF74EFB02460B463A
:101F6000104619464FF000028C4BFEF76FFC0246FC
:101F70000B4643EC172BB0EE470AF0EE670A0CF065
:101F80005FFD51EC100BD7E90623FEF735FB024647
:101F90000B4610461946D7E90223FEF777F90246A9
:101FA0000B467F49C1E900234FF000027A4BD7E985
:101FB0000401FEF76BF902460B461046194674A35E
:101FC000D3E90023FEF718FB02460B4610461946DC
:101FD0004FF00002714BFEF739FC02460B4643EC12
:101FE000172BB0EE470AF0EE670A0CF0D5FC51EC67
:101FF000100BD7E90623FEF7FFFA02460B46104600
:102000001946D7E90223FEF73FF902460B46654918
:10201000C1E900234FF000025F4BD7E90401FEF74E
:1020200035F902460B461046194659A3D3E9002359
:10203000FEF7E2FA02460B46104619464FF0000240
:10204000564BFEF703FC02460B4643EC172BB0EE53
:10205000470AF0EE670A0CF09FFC51EC100BD7E931
:102060000623FEF7C9FA02460B4610461946D7E981
:102070000223FEF70BF902460B464B49C1E9002348
:102080004FF00002444BD7E90401FEF7FFF8024687
:102090000B46104619463EA3D3E90023FEF7ACFADF
:1020A00002460B46104619464FF000023B4BFEF726
:1020B000CDFB02460B4643EC172BB0EE470AF0EE81
:1020C000670A0CF0BDFC51EC100BD7E90623FEF7B4
:1020D00093FA02460B4610461946D7E90223FEF74B
:1020E000D3F802460B463149C1E900232D4BD3E911
:1020F00000231146B96423F00043FB64284BD3E965
:1021000000231146396423F000437B64264BD3E956
:1021100000231146B96323F00043FB63234BD3E94B
:1021200000231146396323F000437B63D7E9122370
:10213000C7E90A23D7E90A23D7E91001FEF7ECFC27
:102140000346002B02D0D7E9102301E0D7E90A2388
:10215000C7E90A23D7E90A23D7E90E01FEF7DCFC19
:102160000346002B02D0D7E90E2301E0D7E90A236A
:10217000C7E90A23D7E90A23D7E90C01FEF7CCFC0B
:102180000346002B14D0D7E90C2313E0AFF30080F3
:1021900050455254FB210940008046400080664073
:1021A00078050020700500208005002088050020AB
:1021B000D7E90A23C7E90A234FF000029A4BD7E96F
:1021C0000A01FEF7A9FC0346002B3AD0D7E90A23FF
:1021D0004FF000009449FEF739FB02460B46C7E971
:1021E0000823924BD3E90001D7E90823FEF704FA4C
:1021F00002460B468D49C1E900238D4BD3E900010E
:10220000D7E90823FEF7F8F902460B468849C1E9E9
:102210000023884BD3E90001D7E90823FEF7ECF946
:1022200002460B468349C1E90023834BD3E90001F1
:10223000D7E90823FEF7E0F902460B467E49C1E9DB
:1022400000237A4BD3E900014FF000024FF0000366
:10225000FEF744FC0346002B10D00021012000F0C3
:102260000FFA724BD3E900233A6023F000437B60FE
:102270006E4B97ED007B83ED007B0FE06B4BD3E95A
:1022800000014FF000024FF00003FEF745FC03464B
:10229000002B03D00121012000F0F2F9644BD3E9B7
:1022A00000014FF000024FF00003FEF735FC03463B
:1022B000002B04D00021022000F0E2F918E05C4B72
:1022C000D3E900014FF000024FF00003FEF706FCD7
:1022D0000346002B0CD00121022000F0D1F9544B11
:1022E000D3E90023924623F0004B514BC3E900ABE6
:1022F000504BD3E900014FF000024FF00003FEF70E
:102300000BFC0346002B04D00021032000F0B8F999
:1023100018E0484BD3E900014FF000024FF00003F2
:10232000FEF7DCFB0346002B0CD00121032000F05C
:10233000A7F9404BD3E90023904623F000493D4BD9
:10234000C3E900893C4BD3E900014FF000024FF094
:102350000003FEF7C3FB0346002B0DD00021042031
:1023600000F08EF9344BD3E90023144623F00045E6
:10237000314BC3E900450FE02F4BD3E900014FF08B
:1023800000024FF00003FEF7C7FB0346002B03D00B
:102390000121042000F074F9244B93ED007BB0EE92
:1023A000470AF0EE670A00F0E7F9B0EE407AF0EE87
:1023B000607A1E4B83ED007B1D4B93ED007BB0EEEE
:1023C000470AF0EE670A00F0D7F9B0EE407AF0EE77
:1023D000607A174B83ED007B164B93ED007BB0EEDC
:1023E000470AF0EE670A00F0C7F9B0EE407AF0EE67
:1023F000607A104B83ED007B0F4B93ED007BB0EECA
:10240000470AF0EE670A00F0B7F9B0EE407AF0EE56
:10241000607A094B83ED007BFEF746FF00BF503723
:10242000BD46BDE8B08F00BF0000F03F7005002042
:1024300078050020800500208805002080B584B044
:1024400000AFF86087ED000BFB68012B32D16C4BBD
:10245000D3E90001D7E90023FDF716FF02460B463A
:102460006749C1E90023664BD3E900014FF0000240
:10247000644BFEF751FB0346002B03D04FF00002E4
:10248000604B13E05E4BD3E900014FF000024FF0C8
:102490000003FEF723FB0346002B04D04FF000029D
:1024A0004FF0000302E0564BD3E900235449C1E941
:1024B0000023A0E0FB68022B32D1534BD3E900018B
:1024C000D7E90023FDF7E0FE02460B464E49C1E97D
:1024D00000234D4BD3E900014FF00002494BFEF7BA
:1024E0001BFB0346002B03D04FF00002454B13E0CB
:1024F000454BD3E900014FF000024FF00003FEF717
:10250000EDFA0346002B04D04FF000024FF0000319
:1025100002E03D4BD3E900233B49C1E900236AE0D7
:10252000FB68032B32D1394BD3E90001D7E90023F3
:10253000FDF7AAFE02460B463449C1E90023334B9E
:10254000D3E900014FF000022E4BFEF7E5FA0346F7
:10255000002B03D04FF000022A4B13E02B4BD3E9A2
:1025600000014FF000024FF00003FEF7B7FA0346F8
:10257000002B04D04FF000024FF0000302E0234B89
:10258000D3E900232149C1E9002334E0FB68042B8F
:1025900031D11F4BD3E90001D7E90023FDF774FEC9
:1025A00002460B461A49C1E90023194BD3E9000141
:1025B0004FF00002134BFEF7AFFA0346002B03D097
:1025C0004FF000020F4B13E0114BD3E900014FF025
:1025D00000024FF00003FEF781FA0346002B04D0FF
:1025E0004FF000024FF0000302E0094BD3E9002353
:1025F0000749C1E9002300BF1037BD4680BD00BFB9
:1026000008000020000059401000002018000020A1
:102610002000002090B589B000AF87ED060B87ED54
:10262000041B87ED022B87ED003B124B1C68D7E99A
:102630000601FEF7B9FA0346E3630E4B1C68D7E9BF
:102640000401FEF7B1FA034623640B4B1C68D7E97B
:102650000201FEF7A9FA03466363084B1C68D7E939
:102660000001FEF7A1FA0346636300BF2437BD46AD
:1026700090BD00BF60030020F0030020380400205C
:1026800080B582B000AF786039607B68012B15D1CE
:102690003B68012B09D101224FF400412F4801F082
:1026A00017FC2F4B01221A7008E000224FF4004162
:1026B0002A4801F00DFC2A4B00221A707B68022B7D
:1026C00015D13B68012B09D101224FF480412348E9
:1026D00001F0FEFB234B01221A7008E000224FF4A8
:1026E00080411E4801F0F4FB1E4B00221A707B68EB
:1026F000032B15D13B68012B09D101224FF4005166
:10270000164801F0E5FB184B01221A7008E0002280
:102710004FF40051114801F0DBFB134B00221A70FB
:102720007B68042B15D13B68012B09D101224FF4A2
:1027300000410E4801F0CCFB0D4B01221A7008E05D
:1027400000224FF40041094801F0C2FB084B00226F
:102750001A7000BF0837BD4680BD00BF00100240A0
:1027600000000020010000200200002000040240C0
:10277000030000200000000080B582B000AF87EDAC
:10278000000B0EA3D3E90023D7E90001FEF75EF8A2
:1027900002460B46104619464FF00002064BFDF765
:1027A0002BFF02460B4643EC172BB0EE470AF0EE28
:1027B000670A0837BD4680BD00004E408A42305B44
:1027C0009F20D83F80B588B004AF0346FB710B460D
:1027D000BB7113467B717B79002B01D001237B7188
:1027E000244B1868FB799AB20A23029301230193C0
:1027F00007F10F0300930123802101F0BFFE034680
:10280000002B01D0012331E0BB79012202FA03F34E
:102810005BB263F07F035BB2DB435AB2FB7B5BB21C
:1028200013405BB2DBB2FB737B7903F00102BB792F
:1028300002FA03F35AB2FB7B5BB213435BB2DBB227
:10284000FB730C4B1868FB799AB20A23029301239D
:10285000019307F10F0300930123802101F094FD00
:102860000346002B01D0012300E000231846103757
:10287000BD4680BD9005002080B584B002AF062320
:10288000FB71094B1868FA1D0A23009301230021EC
:1028900001F07CFC0346002B01D1002300E0012362
:1028A00018460837BD4680BD9005002080B582B02F
:1028B00000AF0346FB71FB791A4604210020FFF7A5
:1028C00081FF034618460837BD4680BD80B582B0FB
:1028D00000AF0346FB71FB791A4607210020FFF782
:1028E00071FF034618460837BD4680BD80B582B0EB
:1028F00000AF0346FB71FB791A4605210020FFF764
:1029000061FF034618460837BD4680BD0000000041
:1029100080B588B004AF0346FB80FB8840F2F552D7
:10292000934202D90323FB7246E0FB88182B02D89E
:10293000FF23FB7240E0FB8807EE903AF8EE677ADF
:1029400017EE900AFDF700FE4FF000022A4BFDF74C
:1029500053FE02460B4626A1D1E90001FDF776FFA2
:1029600002460B46104619464FF00002234BFDF776
:102970008BFC02460B4610461946FEF735F9034616
:10298000FB60F868FDF7E0FD4FF000021C4BFDF71F
:102990007DFC02460B4643EC172BB0EE470AF0EEE7
:1029A000670A0CF0A5F853EC102B10461946FEF7F9
:1029B000FBF80346DBB2FB720120FFF777FF114BF8
:1029C00018680A2302930123019307F10B03009374
:1029D0000123FE22802101F0D7FC0020FFF766FFD3
:1029E0000120FFF773FF002318461037BD4680BD56
:1029F0000000000084D777410000B0400000F03FA5
:102A00000000E03F9005002080B582B000AF786004
:102A1000074A7B681360FFF72FFF3020FFF778FF2E
:102A20000120FFF763FF002318460837BD4680BD2D
:102A30009005002080B483B000AF78607B68D3E954
:102A400000231649C1E900237B68D3E90223144916
:102A5000C1E900237B68D3E904231249C1E90023BB
:102A60007B68D3E908231049C1E900237B68D3E9D7
:102A70000A230E49C1E900237B68D3E90C230C49E2
:102A8000C1E900237B68D3E90E230A49C1E9002389
:102A900000BF0C37BD465DF8047B704798050020E9
:102AA000A0050020A8050020B0050020B8050020E2
:102AB000C0050020C80500202DE9B04F8AB000AF46
:102AC00087ED080B87ED061B87ED042B87ED023B96
:102AD00087ED004B4FF000024FF00003D7E90801EB
:102AE000FDF7F2FF0346002B07D04FF00002514BD9
:102AF000C7E90623D7E9062391E0D7E90623D7E9FA
:102B00000801FDF7C1FB02460B464B49C1E9002312
:102B10004A4BD3E90045484BD3E90001D7E90023EC
:102B2000FDF7B2FB02460B4620462946FDF764FD41
:102B300002460B4610461946D7E90423FDF7A6FBCB
:102B400002460B4614461D463C4BD3E902013A4B64
:102B5000D3E90023FDF750FD02460B4620462946E7
:102B6000FDF794FB02460B4692469B46334BD3E956
:102B70000445314BD3E90089D7E9000102460B46F1
:102B8000FDF784FB02460B4640464946FDF77CFBB9
:102B900002460B4610461946D7E90223FDF776FB9D
:102BA00002460B4620462946FDF726FD02460B4607
:102BB00050465946FDF76AFB02460B46C7E9062315
:102BC000D7E90023C7E902231B4BD3E90023C7E958
:102BD00000234FF000021A4BD7E90601FDF79CFFD6
:102BE0000346002B03D04FF00002154B01E0D7E95C
:102BF0000623C7E906234FF00002124BD7E906016E
:102C0000FDF76CFF0346002B03D04FF000020D4B85
:102C100001E0D7E90623C7E90623D7E9062343ECF9
:102C2000172BB0EE470AF0EE670A2837BD46BDE81D
:102C3000B08F00BF000034C0D0050020D8040020B1
:102C400000002440000024C080B483B000AF78604E
:102C50007B68013B032B57D801A252F823F000BF39
:102C6000712C0008972C0008BD2C0008E32C0008EC
:102C7000284BD3E900232849C1E90023274BD3E996
:102C800000232749C1E90023264BD3E90023264925
:102C9000C1E9002338E01F4BD3E900232349C1E9F0
:102CA00000231E4BD3E900232149C1E900231D4B1A
:102CB000D3E900231F49C1E9002325E0154BD3E9DF
:102CC00000231D49C1E90023144BD3E900231B490C
:102CD000C1E90023134BD3E900231949C1E90023BB
:102CE00012E00C4BD3E900231649C1E900230B4B3A
:102CF000D3E900231449C1E900230A4BD3E9002397
:102D00001249C1E9002300BF00BF0C37BD465DF882
:102D1000047B70472806002030060020F8050020BC
:102D2000D8050020200600200006002038060020DC
:102D3000E00500200806002040060020E8050020ED
:102D40001006002048060020F0050020180600208C
:102D500080B584B000AFF86087ED000BFB68013BE5
:102D6000032B00F2938001A252F823F07D2D00087E
:102D7000C12D0008052E0008492E0008494B93ED8F
:102D8000007B494B93ED006B484B93ED005B484B48
:102D900093ED004BB0EE453AF0EE653AB0EE462AC0
:102DA000F0EE662A97ED001BB0EE470AF0EE670AD8
:102DB000FFF782FE87ED000B0120FFF745FF65E07E
:102DC0003C4B93ED007B3C4B93ED006B3B4B93ED09
:102DD000005B3B4B93ED004BB0EE453AF0EE653AAD
:102DE000B0EE462AF0EE662A97ED001BB0EE470AD9
:102DF000F0EE670AFFF760FE87ED000B0220FFF799
:102E000023FF43E02F4B93ED007B2F4B93ED006BA3
:102E10002E4B93ED005B2E4B93ED004BB0EE453AFD
:102E2000F0EE653AB0EE462AF0EE662A97ED001B0A
:102E3000B0EE470AF0EE670AFFF73EFE87ED000BA3
:102E40000320FFF701FF21E0224B93ED007B224B93
:102E500093ED006B214B93ED005B214B93ED004B09
:102E6000B0EE453AF0EE653AB0EE462AF0EE662A4C
:102E700097ED001BB0EE470AF0EE670AFFF71CFE65
:102E800087ED000B0420FFF7DFFE00BFD7E900232A
:102E900043EC172BB0EE470AF0EE670A1037BD4639
:102EA00080BD00BFB005002030060020D8050020FE
:102EB00000060020B805002038060020E0050020AC
:102EC00008060020C005002040060020E80500207C
:102ED00010060020C805002048060020F00500204C
:102EE0001806002080B500AF0120FEF781F8B0EE93
:102EF000407AF0EE607A564B83ED007B0220FEF7BD
:102F000077F8B0EE407AF0EE607A524B83ED007BBA
:102F10000320FEF76DF8B0EE407AF0EE607A4E4B8B
:102F200083ED007B0420FEF763F8B0EE407AF0EE0C
:102F3000607A4A4B83ED007B454B93ED007BB0EE0E
:102F4000470AF0EE670A0120FFF702FFB0EE407A71
:102F5000F0EE607A424B83ED007B3E4B93ED007BBD
:102F6000B0EE470AF0EE670A0220FFF7F1FEB0EE7E
:102F7000407AF0EE607A3B4B83ED007B364B93ED6D
:102F8000007BB0EE470AF0EE670A0320FFF7E0FE91
:102F9000B0EE407AF0EE607A334B83ED007B2F4B3E
:102FA00093ED007BB0EE470AF0EE670A0420FFF7CE
:102FB000CFFEB0EE407AF0EE607A2C4B83ED007BD2
:102FC000274B93ED007BB0EE470AF0EE670A012035
:102FD000FFF734FA234B93ED007BB0EE470AF0EE97
:102FE000670A0220FFF72AFA1F4B93ED007BB0EE31
:102FF000470AF0EE670A0320FFF720FA1B4B93ED18
:10300000007BB0EE470AF0EE670A0420FFF716FADD
:10301000174B93ED007B174B93ED006B164B93ED25
:10302000005B164B93ED004BB0EE443AF0EE643A81
:10303000B0EE452AF0EE652AB0EE461AF0EE661ABA
:10304000B0EE470AF0EE670AFFF7E4FA00BF80BD72
:1030500038050020400500204805002050050020CC
:10306000180500202005002028050020300500203C
:103070000800002010000020180000202000002080
:1030800080B582B000AF00237B60124B5B6C114AAD
:1030900043F4804353640F4B5B6C03F480437B60C9
:1030A0007B6800233B600B4B1B6C0A4A43F0805348
:1030B0001364084B1B6C03F080533B603B68002299
:1030C0000F216FF0010000F03DFD00BF0837BD4645
:1030D00080BD00BF0038024080B58AB000AF786084
:1030E00007F1140300221A605A609A60DA601A61CC
:1030F0007B681B68194A93422BD100233B61184B14
:103100001B6B174A43F002031363154B1B6B03F051
:1031100002033B613B69C0237B611223BB61002337
:10312000FB6103233B6204237B6207F1140319460E
:103130000C4800F031FD0023FB60094B1B6C084A72
:1031400043F400131364064B1B6C03F40013FB6081
:10315000FB6800BF2837BD4680BD00BF005400405B
:10316000003802400004024080B590B000AF7860A3
:1031700007F12C0300221A605A609A60DA601A6123
:103180007B681B68694A934235D10023BB62684B58
:103190005B6C674A43F001035364654B5B6C03F05F
:1031A0000103BB62BB6A00237B62614B1B6B604AFD
:1031B00043F0100313635E4B1B6B03F010037B6241
:1031C0007B6A4FF42063FB6202233B6300237B6333
:1031D0000023BB630123FB6307F12C031946554809
:1031E00000F0DAFC00220F21192000F0ABFC1920BE
:1031F00000F0C4FC95E07B681B684F4A93422CD1D9
:1032000000233B624A4B1B6C494A43F002031364A0
:10321000474B1B6C03F002033B623B6A0023FB61DC
:10322000434B1B6B424A43F001031363404B1B6B40
:1032300003F00103FB61FB69C023FB6202233B63D4
:1032400000237B630023BB630223FB6307F12C0392
:1032500019463A4800F0A0FC63E07B681B68384AD6
:1032600093422DD10023BB61314B1B6C304A43F09C
:10327000040313642E4B1B6C03F00403BB61BB6996
:1032800000237B612A4B1B6B294A43F0080313631D
:10329000274B1B6B03F008037B617B694FF44053A2
:1032A000FB6202233B6300237B630023BB63022397
:1032B000FB6307F12C031946224800F06DFC30E057
:1032C0007B681B68204A93422BD100233B61184B3B
:1032D0005B6C174A43F002035364154B5B6C03F0BD
:1032E00002033B613B690023FB60114B1B6B104ADF
:1032F00043F0040313630E4B1B6B03F00403FB60EA
:10330000FB68C023FB6202233B6300237B63002333
:10331000BB630323FB6307F12C0319460B4800F042
:103320003BFC00BF4037BD4680BD00BF00000140F0
:10333000003802400010024000040040000002403B
:1033400000080040000C0240000401400008024058
:1033500080B487B000AF78607B681B681F4A9342D7
:103360000ED100237B611E4B1B6C1D4A43F00803EA
:1033700013641B4B1B6C03F008037B617B6926E025
:103380007B681B68174A93420ED100233B61144BA4
:103390005B6C134A43F480335364114B5B6C03F44E
:1033A00080333B613B6912E07B681B680E4A9342A5
:1033B0000DD10023FB600A4B1B6C094A43F040030C
:1033C0001364074B1B6C03F04003FB60FB6800BFFA
:1033D0001C37BD465DF8047B704700BF000C004001
:1033E00000380240004001400018004080B58AB01B
:1033F00000AF786007F1140300221A605A609A60E7
:10340000DA601A617B681B68364A93421ED100233A
:103410003B61354B1B6B344A43F001031363324B62
:103420001B6B03F001033B613B690C237B610223AF
:10343000BB610023FB6100233B6202237B6207F137
:1034400014031946294800F0A7FB47E07B681B6876
:10345000274A93421ED10023FB60234B1B6B224A59
:1034600043F010031363204B1B6B03F01003FB604E
:10347000FB6820237B610223BB610023FB610023E7
:103480003B6203237B6207F114031946194800F0DD
:1034900083FB23E07B681B68174A93421ED10023FD
:1034A000BB60114B1B6B104A43F0020313630E4BBE
:1034B0001B6B03F00203BB60BB684FF480437B616E
:1034C0000223BB610023FB6100233B6209237B6273
:1034D00007F114031946094800F05EFB00BF2837C6
:1034E000BD4680BD000C0040003802400000024094
:1034F000004001400010024000180040000402405B
:1035000080B58AB000AF786007F1140300221A601A
:103510005A609A60DA601A617B681B68284A934295
:103520004AD100233B61274B1B6C264A43F480138E
:103530001364244B1B6C03F480133B613B69002331
:10354000FB60204B1B6B1F4A43F0040313631D4BAE
:103550001B6B03F00403FB60FB680023BB60194B8B
:103560001B6B184A43F008031363164B1B6B03F0E5
:103570000803BB60BB684FF480537B610223BB61CF
:103580000023FB6103233B6208237B6207F11403E2
:1035900019460D4800F000FB04237B610223BB6148
:1035A0000023FB6103233B6208237B6207F11403C2
:1035B0001946064800F0F0FA00BF2837BD4680BD26
:1035C000005000400038024000080240000C024059
:1035D00080B58CB000AF78600023BB6200237B62B3
:1035E0000023BB602E4B5B6C2D4A43F400335364C5
:1035F0002B4B5B6C03F40033BB60BB6807F10C0220
:1036000007F110031146184602F078FA02F062FA48
:10361000B862BB6A234AA2FB03239B0C013B7B627B
:10362000214B224A1A60204B40F2E732DA601E4AF0
:103630007B6A53601C4B00221A611B4B00229A606C
:10364000194B00229A61184802F08AFA034687F85B
:103650002F3097F82F30002B1BD1134802F0D0FAEF
:10366000034687F82F3097F82F30002B11D11920FF
:1036700000F084FA7B680F2B08D8002279681920A3
:1036800000F060FA0A4A7B68136002E0012387F8C1
:103690002F3097F82F3018463037BD4680BD00BF19
:1036A0000038024083DE1B435006002000440140E6
:1036B0002C00002080B400AFFEE780B400AFFEE72E
:1036C00080B400AFFEE780B400AFFEE780B400AF87
:1036D000FEE780B400AF00BFBD465DF8047B7047D5
:1036E00080B500AF034802F051FD034802F04EFDE3
:1036F00000BF80BD880200205006002080B483B047
:1037000000AF0346FB710F4B1B680E4A43F08073FA
:1037100013600D4B1B680C4A43F00103136000BF9C
:103720004FF060431B6803F00103002BF8D04FF00B
:103730006042FB79136000BF0C37BD465DF8047B27
:10374000704700BFFCED00E0000E00E080B400AF69
:1037500001231846BD465DF8047B704780B582B0F2
:1037600000AF7860396007F02FFD034616221A601B
:103770004FF0FF3318460837BD4680BD80B582B094
:1037800000AF78604FF0FF317868FFF7E7FFFEE7A2
:1037900080B586B000AFF860B9607A6000237B61C5
:1037A0000AE0AFF300800146BB685A1CBA60CAB297
:1037B0001A707B6901337B617A697B689A42F0DB1E
:1037C0007B6818461837BD4680BD80B586B000AF0F
:1037D000F860B9607A6000237B6109E0BB685A1C1D
:1037E000BA601B781846FFF789FF7B6901337B615C
:1037F0007A697B689A42F1DB7B6818461837BD46C8
:1038000080BD80B483B000AF78604FF0FF331846BE
:103810000C37BD465DF8047B704780B483B000AFC1
:10382000786039603B684FF400525A6000231846B4
:103830000C37BD465DF8047B704780B483B000AFA1
:103840007860012318460C37BD465DF8047B70474D
:1038500080B485B000AFF860B9607A600023184684
:103860001437BD465DF8047B7047000080B586B014
:1038700000AF7860144A154BD31A7B617B693B61BA
:10388000134B1B68002B02D1114B124A1A60104BCC
:103890001A687B6813443A699A4207D207F094FC8D
:1038A00003460C221A604FF0FF3309E0084B1B68F7
:1038B000FB60074B1A687B681344054A1360FB687A
:1038C00018461837BD4680BD0000022000040000E5
:1038D000980600204051002080B400AF064BD3F87A
:1038E0008830054A43F47003C2F8883000BFBD46F3
:1038F0005DF8047B704700BF00ED00E0DFF834D0D6
:10390000FFF7EAFF0C480D490D4A002302E0D458A6
:10391000C4500433C4188C42F9D30A4A0A4C002319
:1039200001E013600432A242FBD307F053FCFDF721
:1039300005FD70470000022000000020000200206A
:1039400090010108000200203C510020FEE7000029
:1039500080B500AF0E4B1B680D4A43F40073136033
:103960000B4B1B680A4A43F480631360084B1B68C7
:10397000074A43F480731360032000F0D8F80F2047
:10398000FFF726FEFFF77CFB0023184680BD00BF33
:10399000003C024080B400AF064B1B781A46064B31
:1039A0001B681344044A136000BFBD465DF8047BE6
:1039B000704700BF300000209C06002080B400AF9C
:1039C000034B1B681846BD465DF8047B704700BF7B
:1039D0009C06002080B485B000AF78607B6803F05F
:1039E0000703FB600C4BDB68BB60BA684FF6FF0354
:1039F0001340BB60FB681A02BB68134343F0BF630C
:103A000043F40033BB60044ABB68D36000BF143783
:103A1000BD465DF8047B704700ED00E080B400AF68
:103A2000044BDB681B0A03F007031846BD465DF82C
:103A3000047B704700ED00E080B483B000AF034624
:103A4000FB7197F90730002B0BDBFB7903F01F02AA
:103A5000074997F907305B09012000FA02F241F8A3
:103A6000232000BF0C37BD465DF8047B704700BFC4
:103A700000E100E080B483B000AF03463960FB7121
:103A800097F90730002B0ADB3B68DAB20C4997F94B
:103A900007301201D2B20B4483F800230AE03B68DE
:103AA000DAB20849FB7903F00F03043B1201D2B2EA
:103AB0000B441A7600BF0C37BD465DF8047B704797
:103AC00000E100E000ED00E080B489B000AFF860F4
:103AD000B9607A60FB6803F00703FB61FB69C3F11F
:103AE0000703042B28BF0423BB61FB690433062BA7
:103AF00002D9FB69033B00E000237B614FF0FF32FA
:103B0000BB6902FA03F3DA43BB681A407B699A4047
:103B10004FF0FF317B6901FA03F3D9437B680B4017
:103B2000134318462437BD465DF8047B704780B5C3
:103B300082B000AF78607868FFF74CFF00BF0837AD
:103B4000BD4680BD80B586B000AF0346B9607A60DF
:103B5000FB7300237B61FFF761FF78617A68B968C6
:103B60007869FFF7B1FF024697F90F301146184602
:103B7000FFF780FF00BF1837BD4680BD80B582B01B
:103B800000AF0346FB7197F907301846FFF754FF63
:103B900000BF0837BD4680BD80B489B000AF7860F3
:103BA000396000237B6100233B610023BB6100235C
:103BB000FB616BE10122FB6902FA03F37B613B6865
:103BC0001B687A6913403B613A697B699A4240F00D
:103BD0005A813B685B6803F00303012B05D03B6807
:103BE0005B6803F00303022B30D17B689B68BB61E9
:103BF000FB695B00032202FA03F3DB43BA6913405B
:103C0000BB613B68DA68FB695B0002FA03F3BA69DF
:103C10001343BB617B68BA699A607B685B68BB6170
:103C20000122FB6902FA03F3DB43BA691340BB616B
:103C30003B685B681B0903F00102FB6902FA03F3AE
:103C4000BA691343BB617B68BA695A603B685B68B9
:103C500003F00303032B17D07B68DB68BB61FB69B0
:103C60005B00032202FA03F3DB43BA691340BB6132
:103C70003B689A68FB695B0002FA03F3BA69134375
:103C8000BB617B68BA69DA603B685B6803F0030379
:103C9000022B23D1FB69DA087B68083253F8223003
:103CA000BB61FB6903F007039B000F2202FA03F3D9
:103CB000DB43BA691340BB613B681A69FB6903F0D7
:103CC00007039B0002FA03F3BA691343BB61FB6964
:103CD000DA087B680832B96943F822107B681B68F0
:103CE000BB61FB695B00032202FA03F3DB43BA69A1
:103CF0001340BB613B685B6803F00302FB695B0038
:103D000002FA03F3BA691343BB617B68BA691A60AC
:103D10003B685B6803F44033002B00F0B480002361
:103D2000FB60604B5B6C5F4A43F4804353645D4BC4
:103D30005B6C03F48043FB60FB685B4AFB699B0898
:103D4000023352F82330BB61FB6903F003039B008D
:103D50000F2202FA03F3DB43BA691340BB617B68AD
:103D6000524A93422BD07B68514A934225D07B68BC
:103D7000504A93421FD07B684F4A934219D07B68C8
:103D80004E4A934213D07B684D4A93420DD07B68D4
:103D90004C4A934207D07B684B4A934201D1072398
:103DA0000EE008230CE006230AE0052308E00423C4
:103DB00006E0032304E0022302E0012300E00023E5
:103DC000FA6902F0030292009340BA691343BB619F
:103DD0003549FB699B080233BA6941F823203B4B04
:103DE0009B68BB613B69DB43BA691340BB613B68BD
:103DF0005B6803F48013002B03D0BA693B6913435B
:103E0000BB61324ABB699360304BDB68BB613B6985
:103E1000DB43BA691340BB613B685B6803F4001382
:103E2000002B03D0BA693B691343BB61274ABB69C6
:103E3000D360264B5B68BB613B69DB43BA691340C7
:103E4000BB613B685B6803F40033002B03D0BA69A5
:103E50003B691343BB611D4ABB6953601B4B1B6825
:103E6000BB613B69DB43BA691340BB613B685B687C
:103E700003F48033002B03D0BA693B691343BB6161
:103E8000124ABB691360FB690133FB61FB690F2BAD
:103E90007FF690AE00BF00BF2437BD465DF8047BBF
:103EA000704700BF00380240003801400000024067
:103EB0000004024000080240000C024000100240D2
:103EC0000014024000180240001C0240003C014067
:103ED00080B483B000AF78600B467B8013467B7064
:103EE0007B78002B03D07A887B689A6103E07B881B
:103EF0001A047B689A6100BF0C37BD465DF8047BED
:103F00007047000080B584B000AF78607B68002BFC
:103F100001D101232BE17B6893F83D30DBB2002B0C
:103F200006D17B68002283F83C207868FFF7D4F83C
:103F30007B68242283F83D207B681B681A687B68B5
:103F40001B6822F001021A607B681B681A687B6894
:103F50001B6842F400421A607B681B681A687B6821
:103F60001B6822F400421A6001F0A0FDF8607B6833
:103F70005B68814A934207D8FB68804A934294BFAA
:103F800001230023DBB206E0FB687D4A934294BF25
:103F900001230023DBB2002B01D00123E7E0FB6803
:103FA000784AA2FB03239B0CBB607B681B685B68A1
:103FB00023F03F017B681B68BA680A435A607B683C
:103FC0001B681B6A23F03F017B685B686A4A934267
:103FD00002D8BB68013309E0BB684FF4967202FB5C
:103FE00003F3694AA2FB03239B0901337A68126831
:103FF0000B4313627B681B68DB6923F44F4222F09A
:10400000FF027B685B685C498B4219D8FB68591ECC
:104010007B685B685B00B1FBF3F3591C40F6FC73F3
:104020000B40002B0AD0FB68591E7B685B685B0065
:10403000B1FBF3F30133C3F30B0351E004234FE06F
:104040007B689B68002B11D1FB68581E7B68596800
:104050000B465B000B44B0FBF3F30133C3F30B03DC
:10406000002B0CBF01230023DBB212E0FB68581EBB
:104070007B6859680B469B000B4499000B44B0FBCE
:10408000F3F30133C3F30B03002B0CBF0123002315
:10409000DBB2002B01D0012322E07B689B68002B60
:1040A0000ED1FB68581E7B6859680B465B000B44B9
:1040B000B0FBF3F30133C3F30B0343F400430FE00E
:1040C000FB68581E7B6859680B469B000B4499009F
:1040D0000B44B0FBF3F30133C3F30B0343F440434E
:1040E000796809681343CB617B681B681B6823F000
:1040F000C0017B68DA697B681B6A1A437B681B68AE
:104100000A431A607B681B689B6823F4034323F00F
:10411000FF037A6811697A68D26811437A68126875
:104120000B4393607B681B68DB6823F0FF017B68AF
:104130005A697B689B691A437B681B680A43DA608B
:104140007B681B681A687B681B6842F001021A6072
:104150007B6800221A647B68202283F83D207B68FC
:1041600000221A637B68002283F83E200023184651
:104170001037BD4680BD00BFA08601007F841E00B1
:10418000FF083D0083DE1B43D34D621080B588B02D
:1041900002AFF8607A601A460B467B8113463B817A
:1041A000FFF70CFC7861FB6893F83D30DBB2202B05
:1041B00040F0E0807B690093192301227049F86880
:1041C00000F00EFE0346002B01D00223D3E0FB6873
:1041D00093F83C30012B01D10223CCE0FB68012293
:1041E00083F83C20FB681B681B6803F00103012B6C
:1041F00007D0FB681B681A68FB681B6842F0010265
:104200001A60FB681B681A68FB681B6822F400626E
:104210001A60FB68212283F83D20FB68102283F896
:104220003E20FB6800221A64FB687A685A62FB68C9
:104230003A895A85FB685B8D9AB2FB681A85FB68E0
:10424000504ADA6279897B693A6AF86800F0C8FBFB
:104250000346002B01D001238DE000233B61FB6866
:104260001B685B693B61FB681B689B693B613B6941
:1042700066E07A69396AF86800F0CCFE0346002BE4
:104280000DD0FB681B6C042B07D1FB681B681A68F8
:10429000FB681B6842F400721A6001236BE0FB6844
:1042A0005B6A1A78FB681B681A61FB685B6A5A1CB8
:1042B000FB685A62FB685B8D9BB2013B9AB2FB685C
:1042C0005A85FB681B8D013B9AB2FB681A85FB6817
:1042D0001B685B6903F00403042B1BD1FB681B8D77
:1042E000002B17D0FB685B6A1A78FB681B681A61A1
:1042F000FB685B6A5A1CFB685A62FB685B8D9BB269
:10430000013B9AB2FB685A85FB681B8D013B9AB250
:10431000FB681A857A69396AF86800F0C3FE0346BB
:10432000002B0DD0FB681B6C042B07D1FB681B68AE
:104330001A68FB681B6842F400721A6001231AE0D5
:10434000FB681B8D002B94D1FB681B681A68FB6807
:104350001B6842F400721A60FB68202283F83D203B
:10436000FB68002283F83E20FB68002283F83C2093
:10437000002300E0022318461837BD4680BD00BF69
:10438000020010000000FFFF80B588B002AFF860A7
:10439000084611461A4603467B810B463B8113466D
:1043A000FB80FFF70BFB7861FB6893F83D30DBB2D5
:1043B000202B40F0D9807B690093192301226D499D
:1043C000F86800F00DFD0346002B01D00223CCE07D
:1043D000FB6893F83C30012B01D10223C5E0FB6858
:1043E000012283F83C20FB681B681B6803F0010373
:1043F000012B07D0FB681B681A68FB681B6842F03A
:1044000001021A60FB681B681A68FB681B6822F4CB
:1044100000621A60FB68212283F83D20FB6840227D
:1044200083F83E20FB6800221A64FB683A6A5A62ED
:10443000FB68BA8C5A85FB685B8D9AB2FB681A855B
:10444000FB684D4ADA62F8883A8979897B69019379
:10445000BB6A00930346F86800F044FB0346002B58
:1044600052D0012381E07A69B96AF86800F0D2FD80
:104470000346002B0DD0FB681B6C042B07D1FB6897
:104480001B681A68FB681B6842F400721A600123FB
:104490006BE0FB685B6A1A78FB681B681A61FB6853
:1044A0005B6A5A1CFB685A62FB681B8D013B9AB21F
:1044B000FB681A85FB685B8D9BB2013B9AB2FB6877
:1044C0005A85FB681B685B6903F00403042B1BD14E
:1044D000FB681B8D002B17D0FB685B6A1A78FB68A2
:1044E0001B681A61FB685B6A5A1CFB685A62FB68AE
:1044F0001B8D013B9AB2FB681A85FB685B8D9BB2F2
:10450000013B9AB2FB685A85FB681B8D002BAAD130
:104510007A69B96AF86800F0C5FD0346002B0DD032
:10452000FB681B6C042B07D1FB681B681A68FB68CF
:104530001B6842F400721A60012316E0FB681B68D6
:104540001A68FB681B6842F400721A60FB6820223C
:1045500083F83D20FB68002283F83E20FB680022A0
:1045600083F83C20002300E0022318461837BD469C
:1045700080BD00BF020010000000FFFF80B58CB0BE
:1045800002AFF860084611461A4603467B810B4687
:104590003B811346FB80FFF711FA7862FB6893F8C2
:1045A0003D30DBB2202B40F014827B6A009319234C
:1045B00001227B49F86800F013FC0346002B01D070
:1045C000022307E2FB6893F83C30012B01D1022360
:1045D00000E2FB68012283F83C20FB681B681B6833
:1045E00003F00103012B07D0FB681B681A68FB6806
:1045F0001B6842F001021A60FB681B681A68FB68BE
:104600001B6822F400621A60FB68222283F83D20B6
:10461000FB68402283F83E20FB6800221A64FB6896
:104620003A6B5A62FB68BA8E5A85FB685B8D9AB208
:10463000FB681A85FB685B4ADA62F8883A897989EF
:104640007B6A0193BB6B00930346F86800F0E0FAC5
:104650000346002B01D00123BCE1FB681B8D002B1E
:1046600013D100233B62FB681B685B693B62FB68FC
:104670001B689B693B623B6AFB681B681A68FB68A6
:104680001B6842F400721A6090E1FB681B8D012BDD
:104690001BD1FB681B681A68FB681B6822F48062E8
:1046A0001A600023FB61FB681B685B69FB61FB68A8
:1046B0001B689B69FB61FB69FB681B681A68FB68E8
:1046C0001B6842F400721A6070E1FB681B8D022BBC
:1046D0001BD1FB681B681A68FB681B6822F48062A8
:1046E0001A60FB681B681A68FB681B6842F400626A
:1046F0001A600023BB61FB681B685B69BB61FB68D8
:104700001B689B69BB61BB6950E100237B61FB684F
:104710001B685B697B61FB681B689B697B617B69CC
:1047200044E1FB681B8D032B00F2F180FB681B8DBD
:10473000012B23D17A6AB96BF86800F0FBFC0346C1
:10474000002B01D0012345E1FB681B681A69FB6857
:104750005B6AD2B21A70FB685B6A5A1CFB685A62C9
:10476000FB681B8D013B9AB2FB681A85FB685B8D69
:104770009BB2013B9AB2FB685A8517E1FB681B8D1F
:10478000022B4ED17B6A0093BB6B00220649F8686E
:1047900000F026FB0346002B08D001231AE100BFDE
:1047A000020010000000FFFF04000100FB681B680E
:1047B0001A68FB681B6842F400721A60FB681B6889
:1047C0001A69FB685B6AD2B21A70FB685B6A5A1C92
:1047D000FB685A62FB681B8D013B9AB2FB681A8525
:1047E000FB685B8D9BB2013B9AB2FB685A85FB6804
:1047F0001B681A69FB685B6AD2B21A70FB685B6A55
:104800005A1CFB685A62FB681B8D013B9AB2FB681D
:104810001A85FB685B8D9BB2013B9AB2FB685A8597
:10482000C4E07B6A0093BB6B00226C49F86800F01F
:10483000D7FA0346002B01D00123CBE0FB681B68AD
:104840001A68FB681B6822F480621A60FB681B68A8
:104850001A69FB685B6AD2B21A70FB685B6A5A1C01
:10486000FB685A62FB681B8D013B9AB2FB681A8594
:10487000FB685B8D9BB2013B9AB2FB685A857B6AF1
:104880000093BB6B00225549F86800F0A9FA034673
:10489000002B01D001239DE0FB681B681A68FB68B0
:1048A0001B6842F400721A60FB681B681A69FB6897
:1048B0005B6AD2B21A70FB685B6A5A1CFB685A6268
:1048C000FB681B8D013B9AB2FB681A85FB685B8D08
:1048D0009BB2013B9AB2FB685A85FB681B681A6958
:1048E000FB685B6AD2B21A70FB685B6A5A1CFB6891
:1048F0005A62FB681B8D013B9AB2FB681A85FB6804
:104900005B8D9BB2013B9AB2FB685A854EE07A6A96
:10491000B96BF86800F00EFC0346002B01D00123B0
:1049200058E0FB681B681A69FB685B6AD2B21A70B0
:10493000FB685B6A5A1CFB685A62FB681B8D013B73
:104940009AB2FB681A85FB685B8D9BB2013B9AB2F9
:10495000FB685A85FB681B685B6903F00403042B42
:1049600024D1FB681B8D032B07D1FB681B681A68D9
:10497000FB681B6822F480621A60FB681B681A6976
:10498000FB685B6AD2B21A70FB685B6A5A1CFB68F0
:104990005A62FB681B8D013B9AB2FB681A85FB6863
:1049A0005B8D9BB2013B9AB2FB685A85FB681B8DFD
:1049B000002B7FF4B6AEFB68202283F83D20FB6815
:1049C000002283F83E20FB68002283F83C2000236D
:1049D00000E0022318462837BD4680BD04000100D0
:1049E00080B588B002AFF8607A603B600B467B818F
:1049F000FB68DB6A7B617B69082B06D07B69012B36
:104A000003D07B6913F5803F08D1FB681B681A68E7
:104A1000FB681B6842F480721A600BE0FB681B6B3A
:104A2000122B07D1FB681B681A68FB681B6842F4ED
:104A300080721A603B6800937B6800224FF001117E
:104A4000F86800F0CDF90346002B0DD0FB681B6819
:104A50001B6803F48073B3F5807F03D1FB684FF4C8
:104A600000721A64032335E0FB681B69B3F5804FBD
:104A700008D17B89DBB21A46FB681B6802F0FE0294
:104A80001A611BE07B89DB11DBB203F00603DBB2AA
:104A900063F00F03DAB2FB681B681A613B687A683F
:104AA0000E49F86800F016FA0346002B01D00123E6
:104AB00010E07B89DAB2FB681B681A613B687A6890
:104AC0000749F86800F006FA0346002B01D00123DD
:104AD00000E0002318461837BD4680BD08000100DD
:104AE0000200010080B588B002AFF86008461146A8
:104AF0001A4603467B810B463B811346FB80FB68CD
:104B00001B681A68FB681B6842F480721A607B6A33
:104B100000933B6A00224FF00111F86800F060F941
:104B20000346002B0DD0FB681B681B6803F48073E1
:104B3000B3F5807F03D1FB684FF400721A6403233E
:104B40005FE07B89DBB21A46FB681B6802F0FE025D
:104B50001A617B6A3A6A2D49F86800F0BBF903468E
:104B6000002B01D001234CE000237B61FB681B6814
:104B70005B697B61FB681B689B697B617B697A6A07
:104B8000396AF86800F046FA0346002B0DD0FB683E
:104B90001B6C042B07D1FB681B681A68FB681B6839
:104BA00042F400721A6001232BE0FB88012B05D12F
:104BB0003B89DAB2FB681B681A6121E03B891B0A5A
:104BC0009BB2DAB2FB681B681A617A6A396AF868C4
:104BD00000F020FA0346002B0DD0FB681B6C042B61
:104BE00007D1FB681B681A68FB681B6842F40072F7
:104BF0001A60012305E03B89DAB2FB681B681A6181
:104C0000002318461837BD4680BD00BF02000100D2
:104C100080B588B002AFF860084611461A460346D0
:104C20007B810B463B811346FB80FB681B681A683F
:104C3000FB681B6842F480621A60FB681B681A6894
:104C4000FB681B6842F480721A607B6A00933B6ABF
:104C500000224FF00111F86800F0C2F80346002B63
:104C60000DD0FB681B681B6803F48073B3F5807F6D
:104C700003D1FB684FF400721A640323AAE07B8916
:104C8000DBB21A46FB681B6802F0FE021A617B6AFF
:104C90003A6A5249F86800F01DF90346002B01D02A
:104CA000012397E000237B61FB681B685B697B61E4
:104CB000FB681B689B697B617B697A6A396AF86863
:104CC00000F0A8F90346002B0DD0FB681B6C042BE9
:104CD00007D1FB681B681A68FB681B6842F4007206
:104CE0001A60012376E0FB88012B05D13B89DAB2FB
:104CF000FB681B681A6121E03B891B0A9BB2DAB290
:104D0000FB681B681A617A6A396AF86800F082F9F0
:104D10000346002B0DD0FB681B6C042B07D1FB68EE
:104D20001B681A68FB681B6842F400721A60012352
:104D300050E03B89DAB2FB681B681A617A6A396A0B
:104D4000F86800F067F90346002B0DD0FB681B6C78
:104D5000042B07D1FB681B681A68FB681B6842F4C8
:104D600000721A60012335E0FB681B681A68FB6853
:104D70001B6842F480721A607B6A00933B6A0022CF
:104D80004FF00111F86800F02BF80346002B0DD00E
:104D9000FB681B681B6803F48073B3F5807F03D145
:104DA000FB684FF400721A64032313E07B89DBB2C3
:104DB00043F00103DAB2FB681B681A617B6A3A6A46
:104DC0000649F86800F086F80346002B01D001235D
:104DD00000E0002318461837BD4680BD02000100E0
:104DE00080B584B000AFF860B9603B601346FB71DA
:104DF00048E03B68B3F1FF3F44D0FEF7DFFD0246D9
:104E0000BB69D31A3A689A4202D33B68002B39D166
:104E1000BB681B0CDBB2012B0DD1FB681B685B6907
:104E2000DA43BB6813409BB2002B0CBF0123002365
:104E3000DBB21A460CE0FB681B689B69DA43BB686F
:104E400013409BB2002B0CBF01230023DBB21A4698
:104E5000FB799A4216D1FB6800221A63FB68202274
:104E600083F83D20FB68002283F83E20FB681B6C22
:104E700043F02002FB681A64FB68002283F83C20A0
:104E8000012323E0BB681B0CDBB2012B0DD1FB68B7
:104E90001B685B69DA43BB6813409BB2002B0CBFF5
:104EA00001230023DBB21A460CE0FB681B689B69F8
:104EB000DA43BB6813409BB2002B0CBF01230023D5
:104EC000DBB21A46FB799A4293D00023184610377A
:104ED000BD4680BD80B584B000AFF860B9607A602F
:104EE0003B6071E0FB681B685B6903F48063B3F5AA
:104EF000806F23D1FB681B681A68FB681B6842F44B
:104F000000721A60FB681B686FF480625A61FB686C
:104F100000221A63FB68202283F83D20FB680022F0
:104F200083F83E20FB681B6C43F00402FB681A64A4
:104F3000FB68002283F83C20012367E07B68B3F123
:104F4000FF3F41D0FEF73AFD02463B68D31A7A682C
:104F50009A4202D37B68002B36D1BB681B0CDBB2B4
:104F6000012B0CD1FB681B685B69DA43BB681340FB
:104F70009BB2002B14BF01230023DBB20BE0FB68C4
:104F80001B689B69DA43BB6813409BB2002B14BFBC
:104F900001230023DBB2002B16D0FB6800221A632A
:104FA000FB68202283F83D20FB68002283F83E2026
:104FB000FB681B6C43F02002FB681A64FB6800224C
:104FC00083F83C20012321E0BB681B0CDBB2012BE2
:104FD0000CD1FB681B685B69DA43BB6813409BB26A
:104FE000002B14BF01230023DBB20BE0FB681B681E
:104FF0009B69DA43BB6813409BB2002B14BF0123AB
:105000000023DBB2002B7FF46DAF0023184610376E
:10501000BD4680BD80B584B000AFF860B9607A60ED
:1050200034E0F86800F0E3F80346002B01D00123D8
:1050300034E0BB68B3F1FF3F28D0FEF7BFFC024667
:105040007B68D31ABA689A4202D3BB68002B1DD181
:10505000FB681B685B6903F08003802B16D0FB683C
:1050600000221A63FB68202283F83D20FB6800229F
:1050700083F83E20FB681B6C43F02002FB681A6437
:10508000FB68002283F83C20012307E0FB681B68D3
:105090005B6903F08003802BC3D1002318461037CF
:1050A000BD4680BD80B584B000AFF860B9607A605D
:1050B00034E0F86800F09BF80346002B01D0012390
:1050C00034E0BB68B3F1FF3F28D0FEF777FC02461F
:1050D0007B68D31ABA689A4202D3BB68002B1DD1F1
:1050E000FB681B685B6903F00403042B16D0FB68A4
:1050F00000221A63FB68202283F83D20FB6800220F
:1051000083F83E20FB681B6C43F02002FB681A64A6
:10511000FB68002283F83C20012307E0FB681B6842
:105120005B6903F00403042BC3D100231846103736
:10513000BD4680BD80B584B000AFF860B9607A60CC
:1051400049E0FB681B685B6903F01003102B19D161
:10515000FB681B686FF010025A61FB6800221A633B
:10516000FB68202283F83D20FB68002283F83E2064
:10517000FB681A6CFB681A64FB68002283F83C2009
:10518000012330E0FEF71AFC02467B68D31ABA68A6
:105190009A4202D3BB68002B1DD1FB681B685B6978
:1051A00003F04003402B16D0FB6800221A63FB6813
:1051B000202283F83D20FB68002283F83E20FB6814
:1051C0001B6C43F02002FB681A64FB68002283F822
:1051D0003C20012307E0FB681B685B6903F0400388
:1051E000402BAED1002318461037BD4680BD80B499
:1051F00083B000AF78607B681B685B6903F48063F1
:10520000B3F5806F1BD17B681B686FF480625A61B5
:105210007B6800221A637B68202283F83D207B682C
:10522000002283F83E207B681B6C43F004027B68FD
:105230001A647B68002283F83C20012300E00023ED
:1052400018460C37BD465DF8047B704780B586B0C4
:1052500000AF78607B68002B01D1012367E27B6897
:105260001B6803F00103002B75D0884B9B6803F08B
:105270000C03042B0CD0854B9B6803F00C03082B0C
:1052800012D1824B5B6803F48003B3F5800F0BD11E
:105290007E4B1B6803F40033002B5BD07B685B689C
:1052A000002B57D1012342E27B685B68B3F5803F56
:1052B00006D1764B1B68754A43F4803313601DE0BA
:1052C0007B685B68B3F5A02F0CD1704B1B686F4AED
:1052D00043F4802313606D4B1B686C4A43F48033A6
:1052E00013600BE0694B1B68684A23F4803313603A
:1052F000664B1B68654A23F4802313607B685B68F8
:10530000002B13D0FEF75AFB386108E0FEF756FB7E
:1053100002463B69D31A642B01D9032307E25B4B96
:105320001B6803F40033002BF0D014E0FEF746FBBB
:10533000386108E0FEF742FB02463B69D31A642B52
:1053400001D90323F3E1514B1B6803F40033002B15
:10535000F0D100E000BF7B681B6803F00203002B64
:1053600063D04A4B9B6803F00C03002B0BD0474BD8
:105370009B6803F00C03082B1CD1444B5B6803F4BF
:105380008003002B16D1414B1B6803F00203002B56
:1053900005D07B68DB68012B01D00123C7E13B4BC3
:1053A0001B6823F0F8027B681B69DB003749134355
:1053B0000B603AE07B68DB68002B20D0344B012285
:1053C0001A60FEF7FBFA386108E0FEF7F7FA0246CA
:1053D0003B69D31A022B01D90323A8E12B4B1B688D
:1053E00003F00203002BF0D0284B1B6823F0F802D7
:1053F0007B681B69DB00254913430B6015E0244BD8
:1054000000221A60FEF7DAFA386108E0FEF7D6FAF1
:1054100002463B69D31A022B01D9032387E11B4BB8
:105420001B6803F00203002BF0D17B681B6803F0BC
:105430000803002B36D07B685B69002B16D0154B18
:1054400001221A60FEF7BAFA386108E0FEF7B6FAF0
:1054500002463B69D31A022B01D9032367E10B4BA8
:105460005B6F03F00203002BF0D01BE0094B00221E
:105470001A60FEF7A3FA38610EE0FEF79FFA0246C3
:105480003B69D31A022B07D9032350E100380240AD
:1054900000004742800E4742884B5B6F03F00203D7
:1054A000002BEAD17B681B6803F00403002B00F09B
:1054B00097800023FB75814B1B6C03F08053002BFE
:1054C0000FD10023BB607D4B1B6C7C4A43F08053A3
:1054D00013647A4B1B6C03F08053BB60BB680123E1
:1054E000FB75774B1B6803F48073002B18D1744B4A
:1054F0001B68734A43F480731360FEF75FFA3861E8
:1055000008E0FEF75BFA02463B69D31A022B01D989
:1055100003230CE16A4B1B6803F48073002BF0D06B
:105520007B689B68012B06D1644B1B6F634A43F079
:10553000010313671CE07B689B68052B0CD15F4B54
:105540001B6F5E4A43F0040313675C4B1B6F5B4A9F
:1055500043F0010313670BE0584B1B6F574A23F0CE
:1055600001031367554B1B6F544A23F00403136761
:105570007B689B68002B15D0FEF720FA38610AE0A3
:10558000FEF71CFA02463B69D31A41F28832934275
:1055900001D90323CBE0494B1B6F03F00203002B1F
:1055A000EED014E0FEF70AFA38610AE0FEF706FAD8
:1055B00002463B69D31A41F28832934201D9032350
:1055C000B5E03E4B1B6F03F00203002BEED1FB7DD9
:1055D000012B05D1394B1B6C384A23F080531364DF
:1055E0007B689B69002B00F0A180344B9B6803F023
:1055F0000C03082B5CD07B689B69022B41D1314B9B
:1056000000221A60FEF7DAF9386108E0FEF7D6F9F1
:1056100002463B69D31A022B01D9032387E0274BAB
:105620001B6803F00073002BF0D17B68DA697B689C
:105630001B6A1A437B685B6A9B011A437B689B6AFF
:105640005B08013B1B041A437B68DB6A1B061B4992
:1056500013434B601B4B01221A60FEF7AFF9386110
:1056600008E0FEF7ABF902463B69D31A022B01D9D9
:1056700003235CE0114B1B6803F00073002BF0D098
:1056800054E0104B00221A60FEF798F9386108E0E8
:10569000FEF794F902463B69D31A022B01D9032382
:1056A00045E0064B1B6803F00073002BF0D13DE092
:1056B0007B689B69012B07D1012338E00038024049
:1056C00000700040600047421B4B5B68FB607B68DA
:1056D0009B69012B28D0FB6803F480027B68DB699F
:1056E0009A4221D1FB6803F03F027B681B6A9A4211
:1056F0001AD1FA6847F6C07313407A68526A920169
:10570000934211D1FB6803F440327B689B6A5B08CB
:10571000013B1B049A4207D1FB6803F070627B686F
:10572000DB6A1B069A4201D0012300E000231846E1
:105730001837BD4680BD00BF0038024080B584B038
:1057400000AF786039607B68002B01D10123CCE089
:10575000684B1B6803F007033A689A420CD9654B03
:105760003A68D2B21A70634B1B6803F007033A68B9
:105770009A4201D00123B8E07B681B6803F0020362
:10578000002B20D07B681B6803F00403002B05D09E
:10579000594B9B68584A43F4E05393607B681B68FD
:1057A00003F00803002B05D0534B9B68524A43F487
:1057B00060439360504B9B6823F0F0027B689B68CA
:1057C0004D4913438B607B681B6803F00103002B7A
:1057D00044D07B685B68012B07D1474B1B6803F4FF
:1057E0000033002B19D101237FE07B685B68022B1B
:1057F00003D07B685B68032B07D13F4B1B6803F02A
:105800000073002B09D101236FE03B4B1B6803F0B1
:105810000203002B01D1012367E0374B9B6823F083
:1058200003027B685B68344913438B60FEF7C6F85C
:10583000F8600AE0FEF7C2F80246FB68D31A41F2AC
:105840008832934201D903234FE02B4B9B6803F02E
:105850000C027B685B689B009A42EBD1254B1B686E
:1058600003F007033A689A420CD2224B3A68D2B24C
:105870001A70204B1B6803F007033A689A4201D064
:10588000012332E07B681B6803F00403002B08D07F
:10589000194B9B6823F4E0527B68DB68164913437D
:1058A0008B607B681B6803F00803002B09D0124B48
:1058B0009B6823F460427B681B69DB000E4913433D
:1058C0008B6000F021F802460B4B9B681B0903F02C
:1058D0000F030A49CB5C22FA03F3094A1360094B10
:1058E0001B681846FDF774FE002318461037BD46A6
:1058F00080BD00BF003C02400038024068FB000849
:10590000280000202C0000202DE9B04F90B000AFFF
:1059100000237B630023FB6300233B630023BB6303
:10592000594B9B6803F00C03082B0DD0082B00F299
:10593000A180002B02D0042B03D09BE0534BBB6310
:105940009BE0534BBB6398E04F4B5B6803F03F0316
:105950007B634D4B5B6803F48003002B28D04A4BDC
:105960005B689B0900223B627A623B6AC3F30800D2
:105970000021474B03FB01F2002300FB03F3134418
:10598000434AA0FB0212FA620A46BA62FA6A134458
:10599000FB627B6B0022BB61FA61D7E90623D7E982
:1059A0000A01FBF771F902460B461346FB6353E00D
:1059B000354B5B689B0900223B617A613B69C3F30D
:1059C000080A4FF0000B52465B464FF000004FF0C4
:1059D0000001590141EAD261500102460B46B2EB87
:1059E0000A0863EB0B094FF000024FF000034FEA87
:1059F000891343EA98634FEA8812B2EB080463EB19
:105A000009054FF000024FF00003EB0043EA547326
:105A1000E20014461D4614EB0A033B6045EB0B0302
:105A20007B604FF000024FF00003D7E900452946A4
:105A30008B02214643EA915321468A0210461946B9
:105A40007B6B0022BB60FA60D7E90223FBF71CF9ED
:105A500002460B461346FB630B4B5B681B0C03F0C3
:105A6000030301335B003B63FA6B3B6BB2FBF3F365
:105A7000BB6302E0054BBB6300BFBB6B18464037FE
:105A8000BD46BDE8B08F00BF003802400024F400DE
:105A900040787D0180B400AF034B1B681846BD46BB
:105AA0005DF8047B704700BF2800002080B500AF80
:105AB000FFF7F0FF0246054B9B689B0A03F00703C4
:105AC0000349CB5C22FA03F3184680BD003802403C
:105AD00078FB000880B500AFFFF7DCFF0246054BFE
