:020000040800F2
:100000000000022045320008812F0008872F0008D9
:100010008D2F0008932F0008992F00080000000082
:10002000000000000000000000000000D19900085E
:100030009F2F000800000000219C00088571000827
:100040009532000895320008953200089532000874
:100050009532000895320008953200089532000864
:100060009532000895320008953200089532000854
:100070009532000895320008953200089532000844
:100080009532000895320008953200089532000834
:100090009532000895320008953200089532000824
:1000A00095320008AD2F00089532000895320008FF
:1000B0009532000895320008953200089532000804
:1000C00095320008953200089532000895320008F4
:1000D0009532000895320008C92F0008D52F000876
:1000E00095320008953200089532000895320008D4
:1000F00095320008953200089532000895320008C4
:1001000095320008953200089532000895320008B3
:1001100095320008953200089532000895320008A3
:100120009532000895320008953200089532000893
:100130009532000895320008953200089532000883
:100140009532000895320008953200089532000873
:100150009532000895320008953200089532000863
:100160009532000895320008953200089532000853
:100170009532000895320008953200080000000012
:080180009532000895320008D9
:1001900010B5054C237833B9044B13B10448AFF3C1
:1001A00000800123237010BD000200200000000029
:1001B000C803010808B5034B1BB103490348AFF35B
:1001C000008008BD0000000004020020C8030108F0
:1001D00001F0FF01102A2BDB10F0070F08D010F8F8
:1001E000013B013A8B422DD010F0070F42B3F6D1FC
:1001F000F0B441EA012141EA014122F007047FF015
:1002000000070023F0E80256083C85EA010586EA6B
:10021000010685FA47F5A3FA87F586FA47F6A5FAA7
:1002200087F68EB9EED1F0BC01F0FF0102F00702B3
:1002300032B110F8013B013A83EA010313B1F8D15E
:100240000020704701387047002D06BF354603383F
:10025000073815F0010F07D1013015F4807F02BF78
:10026000013015F4C03F0130F0BC0138704700BFC9
:10027000034613F8012B002AFBD1181A01387047E6
:1002800081F0004102E000BF83F0004330B54FEA47
:1002900041044FEA430594EA050F08BF90EA020FB4
:1002A0001FBF54EA000C55EA020C7FEA645C7FEA47
:1002B000655C00F0E2804FEA5454D4EB5555B8BF6A
:1002C0006D420CDD2C4480EA020281EA030382EADB
:1002D000000083EA010180EA020281EA0303362D6D
:1002E00088BF30BD11F0004F4FEA01314FF4801C40
:1002F0004CEA113102D0404261EB410113F0004F52
:100300004FEA03334CEA133302D0524263EB430308
:1003100094EA050F00F0A780A4F10104D5F1200EA6
:100320000DDB02FA0EFC22FA05F2801841F1000101
:1003300003FA0EF2801843FA05F359410EE0A5F1D5
:1003400020050EF1200E012A03FA0EFC28BF4CF006
:10035000020C43FA05F3C01851EBE37101F00045BC
:1003600007D54FF0000EDCF1000C7EEB00006EEBC9
:100370000101B1F5801F1BD3B1F5001F0CD3490853
:100380005FEA30004FEA3C0C04F101044FEA4452AA
:1003900012F5800F80F09A80BCF1004F08BF5FEA31
:1003A000500C50F1000041EB045141EA050130BD11
:1003B0005FEA4C0C404141EB0101013C28BFB1F523
:1003C000801FE9D291F0000F04BF01460020B1FA6E
:1003D00081F308BF2033A3F10B03B3F120020CDA41
:1003E0000C3208DD02F1140CC2F10C0201FA0CF01F
:1003F00021FA02F10CE002F11402D8BFC2F1200C84
:1004000001FA02F120FA0CFCDCBF41EA0C01904039
:10041000E41AA2BF01EB0451294330BD6FEA040482
:100420001F3C1CDA0C340EDC04F11404C4F120026D
:1004300020FA04F001FA02F340EA030021FA04F37F
:1004400045EA030130BDC4F10C04C4F1200220FAD6
:1004500002F001FA04F340EA0300294630BD21FA14
:1004600004F0294630BD94F0000F83F4801306BFDA
:1004700081F480110134013D4EE77FEA645C18BFCE
:100480007FEA655C29D094EA050F08BF90EA020F65
:1004900005D054EA000C04BF1946104630BD91EA5D
:1004A000030F1EBF0021002030BD5FEA545C05D160
:1004B0004000494128BF41F0004130BD14F580049F
:1004C0003CBF01F5801130BD01F0004545F0FE4113
:1004D00041F470014FF0000030BD7FEA645C1ABF48
:1004E000194610467FEA655C1CBF0B46024650EA7F
:1004F000013406BF52EA033591EA030F41F40021AB
:1005000030BD00BF90F0000F04BF0021704730B530
:100510004FF4806404F132044FF000054FF0000105
:1005200050E700BF90F0000F04BF0021704730B5C6
:100530004FF4806404F1320410F0004548BF40429B
:100540004FF000013EE700BF42004FEAE2014FEAF0
:1005500031014FEA02701FBF12F07F4393F07F4FCB
:1005600081F06051704732F07F4208BF704793F0CE
:100570007F4F04BF41F40021704730B54FF46074E1
:1005800001F0004521F000411CE700BF50EA0102E4
:1005900008BF704730B54FF000050AE050EA01028D
:1005A00008BF704730B511F0004502D5404261EBFD
:1005B00041014FF4806404F132045FEA915C3FF43E
:1005C000D8AE4FF003025FEADC0C18BF03325FEADB
:1005D000DC0C18BF033202EBDC02C2F1200300FA8C
:1005E00003FC20FA02F001FA03FE40EA0E0021FAB1
:1005F00002F11444BDE600BF70B54FF0FF0C4CF49F
:10060000E06C1CEA11541DBF1CEA135594EA0C0F50
:1006100095EA0C0F00F0DEF82C4481EA030621EA8B
:100620004C5123EA4C5350EA013518BF52EA0335C6
:1006300041F4801143F4801338D0A0FB02CE4FF078
:100640000005E1FB02E506F00042E0FB03E54FF0A8
:100650000006E1FB03569CF0000F18BF4EF0010EA0
:10066000A4F1FF04B6F5007F64F5407404D25FEA9C
:100670004E0E6D4146EB060642EAC62141EA55514F
:100680004FEAC52040EA5E504FEACE2EB4F1FD0C91
:1006900088BFBCF5E06F1ED8BEF1004F08BF5FEA0F
:1006A000500E50F1000041EB045170BD06F00046C1
:1006B00046EA010140EA020081EA0301B4EB5C046E
:1006C000C2BFD4EB0C0541EA045170BD41F4801166
:1006D0004FF0000E013C00F3AB8014F1360FDEBF8B
:1006E000002001F0004170BDC4F10004203C35DA67
:1006F0000C341BDC04F11404C4F1200500FA05F3EA
:1007000020FA04F001FA05F240EA020001F000428A
:1007100021F0004110EBD37021FA04F642EB060100
:100720005EEA430E08BF20EAD37070BDC4F10C042A
:10073000C4F1200500FA04F320FA05F001FA04F2EE
:1007400040EA020001F0004110EBD37041F10001DA
:100750005EEA430E08BF20EAD37070BDC4F12005E5
:1007600000FA05F24EEA020E20FA04F301FA05F24D
:1007700043EA020321FA04F001F0004121FA04F2F5
:1007800020EA020000EBD3705EEA430E08BF20EAC5
:10079000D37070BD94F0000F0FD101F000464000FF
:1007A00041EB010111F4801F08BF013CF7D041EA81
:1007B000060195F0000F18BF704703F00046520085
:1007C00043EB030313F4801F08BF013DF7D043EA56
:1007D0000603704794EA0C0F0CEA135518BF95EA0C
:1007E0000C0F0CD050EA410618BF52EA4306D1D193
:1007F00081EA030101F000414FF0000070BD50EAB2
:10080000410606BF1046194652EA430619D094EA3B
:100810000C0F02D150EA013613D195EA0C0F05D125
:1008200052EA03361CBF104619460AD181EA030179
:1008300001F0004141F0FE4141F470014FF0000031
:1008400070BD41F0FE4141F4780170BD70B54FF0CC
:10085000FF0C4CF4E06C1CEA11541DBF1CEA13554C
:1008600094EA0C0F95EA0C0F00F0A7F8A4EB05042E
:1008700081EA030E52EA03354FEA013100F0888025
:100880004FEA03334FF0805545EA131343EA1263EE
:100890004FEA022245EA111545EA10654FEA0026A3
:1008A0000EF000419D4208BF964244F1FD0404F55C
:1008B000407402D25B084FEA3202B61A65EB0305B8
:1008C0005B084FEA32024FF480104FF4002CB6EB75
:1008D000020E75EB030E22BFB61A754640EA0C00F5
:1008E0005B084FEA3202B6EB020E75EB030E22BF35
:1008F000B61A754640EA5C005B084FEA3202B6EB76
:10090000020E75EB030E22BFB61A754640EA9C0034
:100910005B084FEA3202B6EB020E75EB030E22BF04
:10092000B61A754640EADC0055EA060E18D04FEAC2
:10093000051545EA16754FEA06164FEAC30343EA62
:1009400052734FEAC2025FEA1C1CC0D111F4801F2F
:100950000BD141EA00014FF000004FF0004CB6E728
:1009600011F4801F04BF01430020B4F1FD0C88BFC7
:10097000BCF5E06F3FF6AFAEB5EB030C04BFB6EBD2
:10098000020C5FEA500C50F1000041EB045170BDC5
:100990000EF0004E4EEA113114EB5C04C2BFD4EBF2
:1009A0000C0541EA045170BD41F480114FF0000E76
:1009B000013C90E645EA060E8DE60CEA135594EAF2
:1009C0000C0F08BF95EA0C0F3FF43BAF94EA0C0FF5
:1009D0000AD150EA01347FF434AF95EA0C0F7FF46A
:1009E00025AF104619462CE795EA0C0F06D152EABE
:1009F00003353FF4FDAE1046194622E750EA4106A2
:100A000018BF52EA43067FF4C5AE50EA41047FF4B2
:100A10000DAF52EA43057FF4EBAE12E74FF0FF3C17
:100A200006E000BF4FF0010C02E000BF4FF0010CE8
:100A30004DF804CD4FEA410C7FEA6C5C4FEA430C61
:100A400018BF7FEA6C5C1BD001B050EA410C0CBFB0
:100A500052EA430C91EA030F02BF90EA020F002012
:100A6000704710F1000F91EA030F58BF994208BF79
:100A700090422CBFD8176FEAE37040F00100704736
:100A80004FEA410C7FEA6C5C02D150EA013C07D18D
:100A90004FEA430C7FEA6C5CD6D152EA033CD3D0D8
:100AA0005DF8040B704700BF8446104662468C46D2
:100AB0001946634600E000BF01B5FFF7B7FF002805
:100AC00048BF10F1000F01BD4DF808EDFFF7F4FF2E
:100AD0000CBF012000205DF808FB00BF4DF808EDB9
:100AE000FFF7EAFF34BF012000205DF808FB00BFDC
:100AF0004DF808EDFFF7E0FF94BF012000205DF8FE
:100B000008FB00BF4DF808EDFFF7CEFF94BF0120B2
:100B100000205DF808FB00BF4DF808EDFFF7C4FFAB
:100B200034BF012000205DF808FB00BF4FEA410CF4
:100B30007FEA6C5C02D150EA013C0AD14FEA430CD7
:100B40007FEA6C5C02D152EA033C02D14FF0000014
:100B500070474FF0010070474FEA410212F5001252
:100B600015D211D56FF47873B3EB625212D94FEAF4
:100B7000C12343F0004343EA505311F0004F23FADE
:100B800002F018BF404270474FF00000704750EA33
:100B9000013005D111F0004008BF6FF000407047F0
:100BA0004FF00000704700BF4A0011D212F500124A
:100BB00011D20DD56FF47873B3EB62520ED44FEAB5
:100BC000C12343F0004343EA505323FA02F0704735
:100BD0004FF00000704750EA013002D14FF0FF3073
:100BE00070474FF0000070474FEA4102B2F1E04316
:100BF00024BFB3F5001CDCF1FE5C0DD901F0004C04
:100C00004FEAC0024CEA5070B2F1004F40EB830053
:100C100008BF20F00100704711F0804F21D113F17F
:100C20003872BCBF01F00040704741F480114FEAB8
:100C30005252C2F11802C2F1200C10FA0CF320FA41
:100C400002F018BF40F001004FEAC1234FEAD3235E
:100C500003FA0CFC40EA0C0023FA02F34FEA4303C8
:100C6000CCE77FEA625307D150EA01331EBF4FF051
:100C7000FE4040F44000704701F0004040F0FE406C
:100C800040F40000704700BF53B94AB9002908BFBB
:100C900000281CBF4FF0FF314FF0FF3000F0A6B925
:100CA000ADF1080C6DE904CE00F03CF8DDF804E08D
:100CB000DDE9022304B0704738B500220023044662
:100CC0000D46FFF70BFF28B920462946BDE83840FE
:100CD00000F00AB8204605F1004100F005F8404256
:100CE00061EB410138BD00BFD0B50C4B0022064678
:100CF0000F46FFF781FCFFF757FF0446FFF702FCA2
:100D0000074B0022FFF778FC02460B463046394677
:100D1000FFF7BAFAFFF748FF2146D0BD0000F03DCB
:100D20000000F0412DE9F047089E0D4604460F46AD
:100D3000002B4AD18A42944665D9B2FA82F343B174
:100D400002FA03FCC3F120029F4020FA02F217438B
:100D50009C404FEA1C4E1FFA8CF5B7FBFEF1220CAB
:100D60000EFB117742EA074201FB05F090420AD9D7
:100D70001CEB020201F1FF3780F01C81904240F22F
:100D8000198102396244121AA4B2B2FBFEF00EFBC2
:100D9000102244EA024400FB05F5A5420AD91CEBE7
:100DA000040400F1FF3280F00781A54240F2048183
:100DB0006444023840EA0140641B00211EB1DC405B
:100DC0000023C6E90043BDE8F0878B4208D9002E16
:100DD00000F0ED800021C6E900050846BDE8F08777
:100DE000B3FA83F1002949D1AB4202D3824200F227
:100DF000F880841A65EB030201201746002EE2D02A
:100E0000C6E90047DFE702B9FFDEB2FA82F3002B42
:100E100040F090808A1A4FEA1C471FFA8CFE01218D
:100E2000B2FBF7F507FB1520220C42EA00420EFB4D
:100E300005F0904208D91CEB020205F1FF3802D2FE
:100E4000904200F2CB804546121AA4B2B2FBF7F0F2
:100E500007FB102244EA02440EFB00FEA64508D917
:100E60001CEB040400F1FF3202D2A64500F2BB8065
:100E70001046A4EB0E0440EA05409FE7C1F12007AD
:100E80008B4022FA07FC4CEA030C05FA01F420FA25
:100E900007F3FD404FEA1C492343B5FBF9F81FFA5D
:100EA0008CFE09FB18551C0C44EA054408FB0EF5A2
:100EB000A54202FA01F200FA01F00BD91CEB04047E
:100EC00008F1FF3A80F08880A54240F28580A8F1C1
:100ED00002086444641B9DB2B4FBF9F309FB13449C
:100EE00045EA044403FB0EFEA64508D91CEB0404A6
:100EF00003F1FF356CD2A6456AD9023B644443EA4C
:100F00000843A3FB0295A4EB0E04AC42C846AE46D0
:100F100056D353D056B1B0EB080264EB0E0404FA7A
:100F200007F7CA40CC401743C6E9007418460021B1
:100F3000BDE8F087C3F1200102FA03FC20FA01F2B8
:100F400025FA01F19D402A434FEA1C471FFA8CFE07
:100F5000B1FBF7F007FB1015110C41EA054100FB4E
:100F60000EF58D4204FA03F408D91CEB010100F1DF
:100F7000FF382FD28D422DD902386144491B92B2DD
:100F8000B1FBF7F507FB151142EA014205FB0EF133
:100F9000914208D91CEB020205F1FF3816D29142AA
:100FA00014D9023D6244521A45EA004138E73146FD
:100FB000304608E73946E6E61046FBE64845A9D242
:100FC000B9EB020865EB0C0E013BA3E74546EAE7E7
:100FD0002B4694E74046D1E7D0467BE7023D62448A
:100FE00032E708460AE76444023842E7704700BF28
:100FF000B0B584B000AF78607B68032B29D07B68E4
:10100000032B36DC7B68012B03D07B68022B10D0CE
:101010002FE0614B1B78002B02D04FF6FF7200E0EF
:1010200000225E4B1B685A625B4B1A785C4B1A704D
:101030001FE05C4B1B78002B02D04FF6FF7200E0E4
:101040000022594B1B685A62564B1A78544B1A703F
:101050000FE0564B1B78002B02D04FF6FF7200E0DA
:101060000022534B1B685A62504B1A784C4B1A7033
:1010700000BF4B4B1B78184600F0DAF807F0DEFC97
:10108000F86029E07B68032B17D07B68032B1BDCFF
:101090007B68012B03D07B68022B07D014E03F4B09
:1010A0001B685B6A9AB2434B1A800DE03E4B1B688B
:1010B0005B6A9AB23F4B1A8006E03D4B1B685B6A45
:1010C0009AB23C4B1A8000BF3A4B1B88344A1278C4
:1010D0001146184600F078F807F0B0FC0246FB68AD
:1010E000D31A142BCED9344B1B681846FFF71AFAC3
:1010F00025A3D3E90023FFF77FFA02460B461446E7
:101100001D46274B1B78002B08D02A4B1B88C3F5A4
:101110007F43FF331846FFF705FA04E0254B1B8891
:101120001846FFF7EFF922462B46FFF7AFF80246C5
:101130000B461046194616A3D3E90023FFF786FB9A
:1011400002460B46104619464FF000021B4BFFF7B4
:1011500053FA02460B46104619464FF00002184B50
:10116000FFF74AFA02460B461649C1E90023154B20
:10117000D3E9002343EC172BB0EE470AF0EE670AE1
:101180001037BD46B0BD00BF0000000000BDEF40FD
:101190000000000000F3E6400000002034020020C0
:1011A00030020020010000207C020020020000200C
:1011B000C4020020280200202C0200200000494028
:1011C00000004E402002002080B483B000AF0346F0
:1011D0000A46FB8013467B717B7983F00103DBB207
:1011E000002B0DD0104B1B88FA889A4204D20F4B6B
:1011F0001B6801330D4A13600B4AFB8813800CE017
:10120000094B1B88FA889A4204D9084B1B680133A2
:10121000064A1360044AFB88138000BF0C37BD46A2
:101220005DF8047B704700BF2A0200202C020020DA
:1012300080B483B000AF0346FB71094B00221A60F3
:10124000FB79002B02D04FF6FF7200E00022054B25
:101250001A8000BF0C37BD465DF8047B704700BFA5
:101260002C0200202A02002080B400AF044BDB686F
:101270001B0A03F007031846BD465DF8047B704760
:1012800000ED00E080B483B000AF0346FB7197F936
:101290000730002B0BDBFB7903F01F02074997F99E
:1012A00007305B09012000FA02F241F8232000BF59
:1012B0000C37BD465DF8047B704700BF00E100E0DD
:1012C00080B483B000AF03463960FB7197F90730F3
:1012D000002B0ADB3B68DAB20C4997F907301201A0
:1012E000D2B20B4483F800230AE03B68DAB2084923
:1012F000FB7903F00F03043B1201D2B20B441A76C0
:1013000000BF0C37BD465DF8047B704700E100E08C
:1013100000ED00E080B489B000AFF860B9607A6099
:10132000FB6803F00703FB61FB69C3F10703042BB0
:1013300028BF0423BB61FB690433062B02D9FB6978
:10134000033B00E000237B614FF0FF32BB6902FAF0
:1013500003F3DA43BB681A407B699A404FF0FF31D0
:101360007B6901FA03F3D9437B680B4013431846AA
:101370002437BD465DF8047B704780B483B000AF6E
:1013800078607B68DB6843F400527B68DA6000BFFA
:101390000C37BD465DF8047B704780B483B000AF66
:1013A00078607B681B6923F490427B681A617B68D4
:1013B0005B6923F02A027B685A6100BF0C37BD4687
:1013C0005DF8047B7047000080B485B000AF7860A2
:1013D000084B1A6B07497B6813430B63054B1A6B69
:1013E0007B681340FB60FB6800BF1437BD465DF8A7
:1013F000047B70470038024080B485B000AF78604D
:10140000084B1A6C07497B6813430B64054B1A6C35
:101410007B681340FB60FB6800BF1437BD465DF876
:10142000047B70470038024080B500AF1A4914A30E
:10143000D3E90023C1E90023174913A3D3E900230B
:10144000C1E90223144912A3D3E90023C1E904230B
:10145000124BD3E900231049C1E90823104BD3E90B
:1014600000230D49C1E90A230E4BD3E900230A49A1
:10147000C1E90C23084801F0ADF800BF80BD00BFF2
:10148000333333333333D33F9A9999999999C93F79
:101490007B14AE47E17A743FF00300207004002013
:1014A000780400208004002080B500AF01F0F4FE35
:1014B00000F07CF800F032FB00F0E0F800F036F9C4
:1014C00000F088F900F0DAF900F03CFA00F0FCFADC
:1014D00000F09AFA264B1B686422DA63244B1B68DF
:1014E00064221A64234B1B6864225A630821204833
:1014F00002F0D8FF0C211E4802F0D4FF00211D4845
:1015000002F0D0FF04211C4803F03AF904211B48E3
:1015100003F036F904211A4803F032F90121194881
:1015200008F048FF184B1B68DA68174B1B6842F03D
:101530002002DA6005F040FE144A0121C82005F0BF
:1015400032FF0346124A1360124A0021124805F086
:101550007DFE0346114A1360114A0021114805F02F
:1015600075FE0346104A136005F04AFEFEE700BF11
:101570000C03002054030020340200207C020020D1
:10158000C4020020004400409C030020AC04010879
:10159000EC03002064040108B11D0008E4030020EE
:1015A00088040108B91E0008E803002080B594B043
:1015B00000AF07F120033022002118460AF037FA65
:1015C00007F10C0300221A605A609A60DA601A610F
:1015D0000023BB60274B1B6C264A43F080531364E7
:1015E000244B1B6C03F08053BB60BB6800237B6003
:1015F000214B1B68204A43F4804313601E4B1B6839
:1016000003F480437B607B6802233B620123FB621F
:1016100010233B630223BB630023FB6308233B646B
:1016200040237B640223BB640423FB6407F1200393
:10163000184602F09DF90346002B01D000F058FC3B
:101640000F23FB6002233B61A0237B610023BB616E
:101650000023FB6107F10C030021184602F000FC97
:101660000346002B01D000F043FC00BF5037BD46BD
:1016700080BD00BF003802400070004080B58CB0D3
:1016800000AF07F10C032422002118460AF0CFF91D
:101690003B1D00221A605A60224B234A1A60214BDC
:1016A00000225A601F4B00229A601E4B4FF6FF72B9
:1016B000DA601C4B00221A611A4B00225A61194B46
:1016C00000229A610323FB6000233B6101237B61BD
:1016D0000023BB610023FB6100233B6201237B628B
:1016E0000023BB620023FB6207F10C0319460D487F
:1016F00002F0A0FF0346002B01D000F0F9FB00230D
:101700007B600023BB603B1D1946064803F084FE46
:101710000346002B01D000F0EBFB00BF3037BD4685
:1017200080BD00BF340200200000014080B58CB0B5
:1017300000AF07F10C032422002118460AF077F9C4
:101740003B1D00221A605A60204B214A1A601F4B31
:1017500000225A601D4B00229A601C4B4FF6FF720C
:10176000DA601A4B00221A61184B00229A61032397
:10177000FB6000233B6101237B610023BB610023ED
:10178000FB6100233B6201237B620023BB620023D9
:10179000FB6207F10C0319460C4802F04BFF0346AD
:1017A000002B01D000F0A4FB00237B600023BB6072
:1017B0003B1D1946054803F02FFE0346002B01D0C0
:1017C00000F096FB00BF3037BD4680BD7C02002094
:1017D0000004004080B58CB000AF07F10C03242258
:1017E000002118460AF023F93B1D00221A605A60B6
:1017F000204B214A1A601F4B00225A601D4B0022C9
:101800009A601C4B4FF6FF72DA601A4B00221A6185
:10181000184B00229A610323FB6000233B610123E4
:101820007B610023BB610023FB6100233B6201233A
:101830007B620023BB620023FB6207F10C031946A5
:101840000C4802F0F7FE0346002B01D000F050FBDD
:1018500000237B600023BB603B1D1946054803F055
:10186000DBFD0346002B01D000F042FB00BF303708
:10187000BD4680BDC40200200008004080B58AB08B
:1018800000AF07F1200300221A605A603B1D0022BE
:101890001A605A609A60DA601A615A619A61274B3D
:1018A000274A1A60254B07225A60244B00229A606F
:1018B000224B6322DA60214B00221A611F4B002267
:1018C0009A611E4802F09EFD0346002B01D000F0F5
:1018D0000FFB00233B6200237B6207F120031946C4
:1018E000164803F099FD0346002B01D000F000FBE1
:1018F00060237B600023BB600023FB6000237B61CF
:101900003B1D082219460D4803F0B8F80346002B8A
:1019100001D000F0EDFA3B1D0C221946074803F0F8
:10192000ADF80346002B01D000F0E2FA034801F0C5
:1019300003FA00BF2837BD4680BD00BF0C0300205E
:10194000000C004080B58CB000AF07F120030022EE
:101950001A605A609A60DA603B1D00221A605A6071
:101960009A60DA601A615A619A61254B254A1A60B9
:10197000234B07225A60224B00229A60204B63229D
:10198000DA601F4B00221A611D4B00229A611C482D
:1019900002F078FC0346002B01D000F0A9FA4FF4C6
:1019A00080533B6207F120031946154803F028F9DC
:1019B0000346002B01D000F09BFA114802F022FDF3
:1019C0000346002B01D000F093FA60237B600023D4
:1019D000BB600023FB6000237B613B1D0022194696
:1019E000074803F04BF80346002B01D000F080FAC3
:1019F000034801F0A1F900BF3037BD4680BD00BFEC
:101A0000540300200040014080B58EB000AF07F1C4
:101A10001C0300221A605A609A60DA601A615A61E7
:101A20009A613B1D00221A605A609A60DA601A615E
:101A30005A614FF40030FFF7DFFC0820FFF7C4FCC9
:101A400060237B600223BB600323FB6000233B61B8
:101A500000237B610723BB613B1D1946184804F036
:101A6000C4FEFFF701FC0346002205211846FFF7DC
:101A700051FC034619462620FFF722FC2620FFF7DB
:101A800001FC4FF4E133FB6100233B6200237B62E6
:101A90000023BB620C23FB6200233B6300237B63B8
:101AA00007F11C031946074805F0C2FA0548FFF77D
:101AB00074FC0448FFF761FC00BF3837BD4680BDA9
:101AC000000C02400044004080B500AF114B124AA8
:101AD0001A60104B4FF4E1325A600E4B00229A60AC
:101AE0000C4B0022DA600B4B00221A61094B0422D6
:101AF0005A61084B00229A61064B0022DA610548C0
:101B000003F01AFD0346002B01D000F0F1F900BFED
:101B100080BD00BF9C0300200048004080B58AB013
:101B200000AF07F1140300221A605A609A60DA606D
:101B30001A6100233B612E4B1B6B2D4A43F01003AF
:101B400013632B4B1B6B03F010033B613B690023BA
:101B5000FB60274B1B6B264A43F080031363244B27
:101B60001B6B03F08003FB60FB680023BB60204B12
:101B70001B6B1F4A43F0010313631D4B1B6B03F0E8
:101B80000103BB60BB6800237B60194B1B6B184AC9
:101B900043F002031363164B1B6B03F002037B60DD
:101BA0007B6800233B60124B1B6B114A43F0080318
:101BB00013630F4B1B6B03F008033B603B68002271
:101BC0004FF460410B4801F0B9FE4FF460437B6174
:101BD0000123BB610023FB6100233B6207F1140377
:101BE0001946044801F00EFD00BF2837BD4680BDF0
:101BF000003802400010024080B586B000AFB882C5
:101C000087ED020B87ED001B397D4239182900F260
:101C1000A48001A050F821F08F1C00085B1D000873
:101C20005B1D00085B1D00085B1D00085B1D0008B4
:101C3000C51C00085B1D00084B1D0008531D000853
:101C4000B31C00085B1D00085B1D00085B1D00083D
:101C50005B1D0008D71C0008A11C0008391D0008E6
:101C60005B1D00085B1D0008FB1C00087D1C0008B4
:101C70000D1D00081F1D0008E91C00089FED3A2BF0
:101C80009FED391B97ED020B00F03AF966E09FEDEE
:101C9000362B9FED371B97ED020B00F031F95DE01D
:101CA0009FED312B9FED341B97ED020B00F028F9CF
:101CB00054E09FED2D2B9FED321B97ED020B00F0B2
:101CC0001FF94BE09FED282B9FED2F1B97ED020B8B
:101CD00000F016F942E09FED242B9FED2D1B97EDB0
:101CE000020B00F00DF939E09FED1F2B9FED2A1B31
:101CF00097ED020B00F004F930E09FED1B2B9FEDF8
:101D0000281B97ED020B00F0FBF827E097ED002B66
:101D10009FED151B9FED140B00F0F2F81EE03A68E2
:101D2000796881F0004343EC122B9FED0F1B9FED70
:101D30000E0B00F0E5F811E09FED0B2B9FED0A1B59
:101D40009FED090B00F0DCF808E0174B01221A7038
:101D500004E0164B01221A7000E000BF00BF1837E4
:101D6000BD4680BDAFF30080000000000000000011
:101D700000000000008066400000000000E07040AD
:101D800000000000008056400000000000B07340DA
:101D900000000000008046400000000000E06040BD
:101DA0000000000000206C4058040020590400206E
:101DB00080B586B000AF786000233B61344B186873
:101DC00007F108010023002205F0C0FBF860FB6862
:101DD000002B58D13B7A19462E4808F069FD3B7A12
:101DE00001332D4A13441B7803F00403002B1BD04E
:101DF0002A4B1B78002B09D03B7A303B7B61274B69
:101E000000221A707969264808F052FD254B1B788C
:101E1000002B09D03B7A303B3B61224B00221A70E9
:101E20003969214808F044FD7B69204A82FB03128E
:101E30009210DB17D31A1846FEF774FB02460B46C6
:101E40001B49C1E900233B69184A82FB0312921027
:101E5000DB17D31A1846FEF765FB02460B461549F9
:101E6000C1E90023124B93ED007B124B93ED006B05
:101E7000B0EE461AF0EE661AB0EE470AF0EE670AC8
:101E8000B868FFF7B9FE322005F072FA96E700BF96
:101E9000EC030020F8030108DC04010858040020CA
:101EA00008040108590400201404010867666666E6
:101EB000600400206804002080B582B000AF786024
:101EC00000F08CFD0A2005F053FAF9E780B582B0E6
:101ED00000AF78607B681B68044A934201D101F02F
:101EE000FDF900BF0837BD4680BD00BF004401407A
:101EF00080B400AF72B600BFFEE700000000000033
:101F00002DE9B04F92B000AF87ED060B87ED041BB3
:101F100087ED022B96A3D3E90023D7E90401FEF74E
:101F20006BFB02460B46104619464FF00002944BDD
:101F3000FEF78CFC02460B4643EC172BB0EE470A2B
:101F4000F0EE670A0DF0ACF951EC100B86A3D3E963
:101F50000023FEF751FB02460B46C7E9002384A38A
:101F6000D3E90023D7E90401FEF746FB02460B46FE
:101F7000104619464FF00002814BFEF767FC0246FF
:101F80000B4643EC172BB0EE470AF0EE670A0DF054
:101F9000DBF951EC100B4FF000027A4BFEF72CFBF3
:101FA00002460B46D7E90001FEF76EF902460B46E2
:101FB00010461946D7E90623FEF71EFB02460B46DC
:101FC00010461946D7E90223FEF760F902460B4690
:101FD0006D49C1E9002366A3D3E90023D7E90401D1
:101FE000FEF70AFB02460B46104619464FF0000268
:101FF000634BFEF72BFC02460B4643EC172BB0EE6F
:10200000470AF0EE670A0DF04BF951EC100B5AA39A
:10201000D3E90023FEF7F0FA02460B46C7E9002396
:1020200053A3D3E90023D7E90401FEF7E5FA0246FA
:102030000B46104619464FF00002514BFEF706FCC6
:1020400002460B4643EC172BB0EE470AF0EE670A48
:102050000DF07AF951EC100B4FF00002494BFEF7EE
:10206000CBFA02460B46D7E90001FEF70DF902460E
:102070000B4610461946D7E90623FEF7BDFA02467D
:102080000B4610461946D7E90223FEF7FFF8024631
:102090000B463E49C1E9002335A3D3E90023D7E924
:1020A0000401FEF7A9FA02460B46104619464FF006
:1020B0000002334BFEF7CAFB02460B4643EC172BDC
:1020C000B0EE470AF0EE670A0DF03EF951EC100B46
:1020D000D7E90623FEF790FA02460B46104619464A
:1020E000D7E90223FEF7D2F802460B462849C1E998
:1020F0000023274BD3E900231146396423F0004322
:102100007B64214BD3E900231146B96323F00043DC
:10211000FB631E4BD3E900231146396323F00043D0
:102120007B63D7E91023C7E90A23D7E90A23D7E954
:102130000E01FEF7F1FC0346002B02D0D7E90E2377
:1021400001E0D7E90A23C7E90A23D7E90A23D7E937
:102150000C01FEF7E1FC0346002B1BD0D7E90C2352
:102160001AE000BFAFF30080D7A3703D0AD7EBBFE2
:1021700050455254FB210940D7A3703D0AD7EB3F8D
:10218000008066400000E03F7804002080040020CA
:1021900070040020D7E90A23C7E90A2379A3D3E909
:1021A0000023D7E90A01FEF7B7FC0346002B2ED027
:1021B000D7E90A2373A1D1E90001FEF747FB0246E4
:1021C0000B46C7E908236C4BD3E90001D7E9082384
:1021D000FEF712FA02460B466749C1E90023674B36
:1021E000D3E90001D7E90823FEF706FA02460B46B9
:1021F0006249C1E90023624BD3E90001D7E9082312
:10220000FEF7FAF902460B465D49C1E900235A4B35
:10221000D3E900014FF000024FF00003FEF75EFC2F
:102220000346002B0DD00021012000F04FF9524B46
:10223000D3E90023924623F0004B4F4BC3E900AB98
:102240000FE04D4BD3E900014FF000024FF00003C7
:10225000FEF762FC0346002B03D00121012000F0B1
:1022600035F9464BD3E900014FF000024FF000036F
:10227000FEF734FC0346002B0DD00021022000F0B5
:1022800025F93E4BD3E90023904623F000493B4B10
:10229000C3E900890FE0394BD3E900014FF0000298
:1022A0004FF00003FEF738FC0346002B03D001215A
:1022B000022000F00BF9324BD3E900014FF000028D
:1022C0004FF00003FEF70AFC0346002B0DD000215F
:1022D000032000F0FBF82A4BD3E90023144623F037
:1022E0000045274BC3E900450FE0254BD3E900012A
:1022F0004FF000024FF00003FEF70EFC0346002BE8
:1023000003D00121032000F0E1F81B4B93ED007B8B
:10231000B0EE470AF0EE670A00F036F9B0EE407A08
:10232000F0EE607A144B83ED007B144B93ED007B51
:10233000B0EE470AF0EE670A00F026F9B0EE407AF8
:10234000F0EE607A0D4B83ED007B0D4B93ED007B3F
:10235000B0EE470AF0EE670A00F016F9B0EE407AE8
:10236000F0EE607A064B83ED007BFFF75DF800BF6F
:102370004837BD46BDE8B08F7004002078040020C7
:1023800080040020000000000088C34090B587B0A2
:1023900000AFF86087ED000BFB68012B05D1444BC3
:1023A000D3E90023C7E9042310E0FB68022B05D121
:1023B000404BD3E90023C7E9042307E0FB68032B64
:1023C00004D13D4BD3E90023C7E90423D7E9002317
:1023D000D7E90401FDF758FF02460B463749C1E92A
:1023E0000023364BD3E900014FF00002344BFEF7D7
:1023F00093FB0346002B05D030494FF00002304BD1
:10240000C1E900232D4BD3E900014FF000024FF04A
:102410000003FEF763FB0346002B06D027494FF06D
:1024200000024FF00003C1E90023FB68012B11D12A
:10243000224BD3E9002323490C6810461946FEF7C6
:10244000B3FB0346E3631D4BD3E900231849C1E9FD
:10245000002328E0FB68022B11D1184BD3E900239D
:1024600018490C6810461946FEF79EFB0346236484
:10247000124BD3E900230F49C1E9002313E0FB68A5
:10248000032B10D10D4BD3E900230F490C681046E4
:102490001946FEF789FB03466363084BD3E9002323
:1024A0000549C1E9002300BF1C37BD4690BD00BFF0
:1024B000080000201000002018000020200000204C
:1024C000000059400C0300205403002080B582B066
:1024D00000AF786039607B68012B15D13B68012B18
:1024E00009D101224FF40041224801F027FA224B82
:1024F00001221A7008E000224FF400411D4801F04B
:102500001DFA1D4B00221A707B68022B15D13B6807
:10251000012B09D101224FF48041164801F00EFA37
:10252000164B01221A7008E000224FF48041114836
:1025300001F004FA114B00221A707B68032B15D1AD
:102540003B68012B09D101224FF40051094801F0E9
:10255000F5F90B4B01221A7008E000224FF40051EC
:10256000044801F0EBF9064B00221A7000BF08374F
:10257000BD4680BD00100240000000200100002088
:10258000020000200000000080B582B000AF87ED9F
:10259000000B0EA3D3E90023D7E90001FEF756F99B
:1025A00002460B46104619464FF00002064BFEF756
:1025B00023F802460B4643EC172BB0EE470AF0EE29
:1025C000670A0837BD4680BD00004E408A42305B36
:1025D0009F20D83F80B483B000AF78607B68D3E998
:1025E00000231349C1E900237B68D3E90223114981
:1025F000C1E900237B68D3E904230F49C1E9002323
:102600007B68D3E908230D49C1E900237B68D3E93E
:102610000A230B49C1E900237B68D3E90C2309494C
:10262000C1E9002300BF0C37BD465DF8047B70474D
:10263000880400209004002098040020A0040020BA
:10264000A8040020B00400202DE9B04F8AB000AFEC
:1026500087ED080B87ED061B87ED042B87ED023B0A
:1026600087ED004B4FF000024FF00003D7E908015F
:10267000FEF72AFA0346002B07D04FF00002514B19
:10268000C7E90623D7E9062391E0D7E90623D7E96E
:102690000801FDF7F9FD02460B464B49C1E900234D
:1026A0004A4BD3E90045484BD3E90001D7E9002361
:1026B000FDF7EAFD02460B4620462946FDF79CFF42
:1026C00002460B4610461946D7E90423FDF7DEFD06
:1026D00002460B4614461D463C4BD3E902013A4BD9
:1026E000D3E90023FDF788FF02460B462046294622
:1026F000FDF7CCFD02460B4692469B46334BD3E991
:102700000445314BD3E90089D7E9000102460B4665
:10271000FDF7BCFD02460B4640464946FDF7B4FDB9
:1027200002460B4610461946D7E90223FDF7AEFDD7
:1027300002460B4620462946FDF75EFF02460B4641
:1027400050465946FDF7A2FD02460B46C7E906234F
:10275000D7E90023C7E902231B4BD3E90023C7E9CC
:1027600000234FF000021A4BD7E90601FEF7D4F917
:102770000346002B03D04FF00002154B01E0D7E9D0
:102780000623C7E906234FF000020E4BD7E90601E6
:10279000FEF7A4F90346002B03D04FF00002094BCB
:1027A00001E0D7E90623C7E90623D7E9062343EC6E
:1027B000172BB0EE470AF0EE670A2837BD46BDE892
:1027C000B08F00BF000024C0B8040020F003002038
:1027D0000000244080B483B000AF78607B68032B96
:1027E0002FD07B68032B3FDC7B68012B03D07B68F9
:1027F000022B13D038E01F4BD3E900231E49C1E957
:1028000000231E4BD3E900231D49C1E900231D4BC2
:10281000D3E900231C49C1E9002325E0154BD3E986
:1028200000231A49C1E90023144BD3E900231849B6
:10283000C1E90023134BD3E900231649C1E9002362
:1028400012E00C4BD3E900231349C1E900230B4BE1
:10285000D3E900231149C1E900230A4BD3E900233E
:102860000F49C1E9002300BF00BF0C37BD465DF82A
:10287000047B70470005002008050020D8040020D4
:10288000C0040020F8040020E0040020100500200F
:10289000C8040020E804002018050020D00400200F
:1028A000F004002080B584B000AFF86087ED000B25
:1028B000FB68032B4DD0FB68032B6CDCFB68012B02
:1028C00003D0FB68022B22D065E0384B93ED007BF0
:1028D000374B93ED006B374B93ED005B364B93ED2D
:1028E000004BB0EE453AF0EE653AB0EE462AF0EE17
:1028F000662A97ED001BB0EE470AF0EE670AFFF775
:10290000A3FE87ED000B0120FFF764FF43E02B4B94
:1029100093ED007B2A4B93ED006B2A4B93ED005B0C
:10292000294B93ED004BB0EE453AF0EE653AB0EE30
:10293000462AF0EE662A97ED001BB0EE470AF0EE4D
:10294000670AFFF781FE87ED000B0220FFF742FFC9
:1029500021E01E4B93ED007B1D4B93ED006B1D4B57
:1029600093ED005B1C4B93ED004BB0EE453AF0EE5F
:10297000653AB0EE462AF0EE662A97ED001BB0EEFF
:10298000470AF0EE670AFFF75FFE87ED000B0320B2
:10299000FFF720FF00BFD7E9002343EC172BB0EE71
:1029A000470AF0EE670A1037BD4680BDA00400203C
:1029B00008050020C0040020E0040020A804002036
:1029C00010050020C8040020E8040020B004002006
:1029D00018050020D0040020F004002080B500AFCE
:1029E0000120FEF705FBB0EE407AF0EE607A354B41
:1029F00083ED007B0220FEF7FBFAB0EE407AF0EEAA
:102A0000607A314B83ED007B0320FEF7F1FAB0EEE4
:102A1000407AF0EE607A2D4B83ED007B294B93EDED
:102A2000007BB0EE470AF0EE670A0120FFF73AFF9D
:102A3000B0EE407AF0EE607A254B83ED007B224BBE
:102A400093ED007BB0EE470AF0EE670A0220FFF735
:102A500029FFB0EE407AF0EE607A1E4B83ED007BEA
:102A60001A4B93ED007BB0EE470AF0EE670A0320A5
:102A7000FFF718FFB0EE407AF0EE607A164B83ED68
:102A8000007B134B93ED007BB0EE470AF0EE670A34
:102A90000120FFF77BFC0F4B93ED007BB0EE470A64
:102AA000F0EE670A0220FFF771FC0B4B93ED007B01
:102AB000B0EE470AF0EE670A0320FFF767FC00BF9D
:102AC00080BD00BF400400204804002050040020C6
:102AD00028040020300400203804002080B582B093
:102AE00000AF00237B60124B5B6C114A43F48043C0
:102AF00053640F4B5B6C03F480437B607B68002363
:102B00003B600B4B1B6C0A4A43F080531364084B29
:102B10001B6C03F080533B603B6800220F216FF079
:102B2000010000F0B3FC00BF0837BD4680BD00BF08
:102B30000038024080B58EB000AF786007F1240302
:102B400000221A605A609A60DA601A617B681B681A
:102B5000504A934235D100233B624F4B5B6C4E4A47
:102B600043F0010353644C4B5B6C03F001033B6285
:102B70003B6A0023FB61484B1B6B474A43F0100341
:102B80001363454B1B6B03F01003FB61FB694FF4B0
:102B900020637B620223BB620023FB6200233B6352
:102BA00001237B6307F1240319463C4800F02AFD0A
:102BB00000220F21192000F069FC192000F082FC8E
:102BC00063E07B681B68364A93422CD10023BB61CB
:102BD000314B1B6C304A43F0020313642E4B1B6CC9
:102BE00003F00203BB61BB6900237B612A4B1B6BB3
:102BF000294A43F001031363274B1B6B03F00103C6
:102C00007B617B69C0237B620223BB620023FB6282
:102C100000233B6302237B6307F124031946214809
:102C200000F0F0FC31E07B681B681F4A93422CD116
:102C300000233B61184B1B6C174A43F004031364D9
:102C4000154B1B6C03F004033B613B690023FB60E5
:102C5000114B1B6B104A43F0080313630E4B1B6BA5
:102C600003F00803FB60FB684FF440537B620223D0
:102C7000BB620023FB6200233B6302237B6307F1FB
:102C800024031946094800F0BDFC00BF3837BD4693
:102C900080BD00BF0000014000380240001002402B
:102CA000000400400000024000080040000C024008
:102CB00080B485B000AF78607B681B680B4A934294
:102CC0000DD10023FB600A4B1B6C094A43F008033B
:102CD0001364074B1B6C03F00803FB60FB6800BF29
:102CE0001437BD465DF8047B704700BF000C004000
:102CF0000038024080B485B000AF78607B681B6804
:102D00000B4A93420DD10023FB600A4B5B6C094ACE
:102D100043F480335364074B5B6C03F48033FB60F4
:102D2000FB6800BF1437BD465DF8047B704700BFE9
:102D3000004001400038024080B58AB000AF7860A2
:102D400007F1140300221A605A609A60DA601A616F
:102D50007B681B68244A93421ED100233B61234BAE
:102D60001B6B224A43F001031363204B1B6B03F0E0
:102D700001033B613B690C237B610223BB610023A0
:102D8000FB6100233B6202237B6207F114031946B7
:102D9000174800F037FC22E07B681B68154A934215
:102DA0001DD10023FB60114B1B6B104A43F0100335
:102DB00013630E4B1B6B03F01003FB60FB682023B7
:102DC0007B610223BB610023FB6100233B62032381
:102DD0007B6207F114031946074800F013FC00BF9B
:102DE0002837BD4680BD00BF000C004000380240BF
:102DF00000000240004001400010024080B58AB04F
:102E000000AF786007F1140300221A605A609A60DC
:102E1000DA601A617B681B681D4A934234D1002333
:102E20003B611C4B1B6C1B4A43F480231364194BFE
:102E30001B6C03F480233B613B690023FB60154B53
:102E40001B6B144A43F002031363124B1B6B03F01A
:102E50000203FB60FB684FF440637B610223BB61AC
:102E60000023FB6103233B6207237B6207F114030A
:102E70001946094800F0C6FB00220621272000F071
:102E800005FB272000F01EFB00BF2837BD4680BD94
:102E900000480040003802400004024080B58CB079
:102EA00000AF78600023BB6200237B620023BB601D
:102EB0002E4B5B6C2D4A43F4003353642B4B5B6CFD
:102EC00003F40033BB60BB6807F10C0207F1100389
:102ED0001146184601F0A4F901F08EF9B862BB6AF8
:102EE000234AA2FB03239B0C013B7B62214B224A1A
:102EF0001A60204B40F2E732DA601E4A7B6A536068
:102F00001C4B00221A611B4B00229A60194B0022B5
:102F10009A61184801F0B6F9034687F82F3097F800
:102F20002F30002B1BD1134801F0FCF9034687F822
:102F30002F3097F82F30002B11D1192000F0C2FA52
:102F40007B680F2B08D800227968192000F09EFAC0
:102F50000A4A7B68136002E0012387F82F3097F854
:102F60002F3018463037BD4680BD00BF00380240C4
:102F700083DE1B4320050020004401402C0000207C
:102F800080B400AFFEE780B400AFFEE780B400AFCE
:102F9000FEE780B400AFFEE780B400AFFEE780B488
:102FA00000AF00BFBD465DF8047B704780B500AF41
:102FB000034801F073FC034801F070FC00BF80BDC2
:102FC000340200202005002080B500AF07F0C6FCC9
:102FD00000BF80BD80B582B000AF00237B707B78DE
:102FE0005A1CD2B27A701A463B4699180023012225
:102FF000104802F0F1FA104B1868394600230022FD
:1030000004F044FA0D4B1B68184605F093FB7860FA
:103010007B68002B07D00A4B4FF080521A60BFF339
:103020004F8FBFF36F8F034802F06EFB00BF08376E
:10303000BD4680BD9C030020EC030020E40300207B
:1030400004ED00E080B483B000AF0346FB710F4B8A
:103050001B680E4A43F0807313600D4B1B680C4ACB
:1030600043F00103136000BF4FF060431B6803F09F
:103070000103002BF8D04FF06042FB79136000BFD2
:103080000C37BD465DF8047B704700BFFCED00E0E7
:10309000000E00E080B400AF01231846BD465DF885
:1030A000047B704780B582B000AF7860396008F06B
:1030B00011FD034616221A604FF0FF3318460837F9
:1030C000BD4680BD80B582B000AF78604FF0FF3163
:1030D0007868FFF7E7FFFEE780B586B000AFF860DD
:1030E000B9607A6000237B610AE0AFF3008001469B
:1030F000BB685A1CBA60CAB21A707B6901337B6123
:103100007A697B689A42F0DB7B6818461837BD46BF
:1031100080BD80B586B000AFF860B9607A600023EA
:103120007B6109E0BB685A1CBA601B781846FFF740
:1031300089FF7B6901337B617A697B689A42F1DBA5
:103140007B6818461837BD4680BD80B483B000AF99
:1031500078604FF0FF3318460C37BD465DF8047BAE
:10316000704780B483B000AF786039603B684FF43B
:1031700000525A60002318460C37BD465DF8047BA8
:10318000704780B483B000AF7860012318460C37D5
:10319000BD465DF8047B704780B485B000AFF86031
:1031A000B9607A60002318461437BD465DF8047B89
:1031B0007047000080B586B000AF7860144A154BA8
:1031C000D31A7B617B693B61134B1B68002B02D1D7
:1031D000114B124A1A60104B1A687B6813443A6903
:1031E0009A4207D208F076FC03460C221A604FF090
:1031F000FF3309E0084B1B68FB60074B1A687B68CC
:103200001344054A1360FB6818461837BD4680BD55
:10321000000002200004000068050020A8540020DF
:1032200080B400AF064BD3F88830054A43F47003EE
:10323000C2F8883000BFBD465DF8047B704700BF10
:1032400000ED00E0DFF834D0FFF7EAFF0C480D494D
:103250000D4A002302E0D458C4500433C4188C42F1
:10326000F9D30A4A0A4C002301E013600432A24257
:10327000FBD308F035FCFEF717F970470000022079
:103280000000002000020020F00A010800020020D7
:10329000A8540020FEE7000080B500AF0E4B1B686D
:1032A0000D4A43F4007313600B4B1B680A4A43F446
:1032B00080631360084B1B68074A43F480731360F4
:1032C000032000F0D8F80F20FFF7E8FDFFF706FC19
:1032D0000023184680BD00BF003C024080B400AF10
:1032E000064B1B781A46064B1B681344044A1360AE
:1032F00000BFBD465DF8047B704700BF3000002072
:103300006C05002080B400AF034B1B681846BD4617
:103310005DF8047B704700BF6C05002080B485B069
:1033200000AF78607B6803F00703FB600C4BDB6841
:10333000BB60BA684FF6FF031340BB60FB681A021C
:10334000BB68134343F0BF6343F40033BB60044ADC
:10335000BB68D36000BF1437BD465DF8047B70477F
:1033600000ED00E080B400AF044BDB681B0A03F003
:1033700007031846BD465DF8047B704700ED00E08A
:1033800080B483B000AF0346FB7197F90730002B80
:103390000BDBFB7903F01F02074997F907305B0944
:1033A000012000FA02F241F8232000BF0C37BD468D
:1033B0005DF8047B704700BF00E100E080B483B09B
:1033C00000AF03463960FB7197F90730002B0ADB29
:1033D0003B68DAB20C4997F907301201D2B20B44BC
:1033E00083F800230AE03B68DAB20849FB7903F06E
:1033F0000F03043B1201D2B20B441A7600BF0C3704
:10340000BD465DF8047B704700E100E000ED00E0A0
:1034100080B489B000AFF860B9607A60FB6803F0EF
:103420000703FB61FB69C3F10703042B28BF0423D7
:10343000BB61FB690433062B02D9FB69033B00E047
:1034400000237B614FF0FF32BB6902FA03F3DA43DA
:10345000BB681A407B699A404FF0FF317B6901FAE3
:1034600003F3D9437B680B40134318462437BD460A
:103470005DF8047B704780B582B000AF78607868F3
:10348000FFF74CFF00BF0837BD4680BD80B586B052
:1034900000AF0346B9607A60FB7300237B61FFF7DE
:1034A00061FF78617A68B9687869FFF7B1FF024611
:1034B00097F90F3011461846FFF780FF00BF183705
:1034C000BD4680BD80B582B000AF0346FB7197F961
:1034D00007301846FFF754FF00BF0837BD4680BDD0
:1034E00080B584B000AF78607B689B6DFB60FFF7B0
:1034F00009FFB8607B6893F83530DBB2022B08D047
:103500007B6880225A657B68002283F8342001237F
:1035100052E07B681B681A687B681B6822F0160201
:103520001A607B681B685A697B681B6822F08002FE
:103530005A617B681B6C002B03D17B689B6C002B52
:1035400007D07B681B681A687B681B6822F008023A
:103550001A607B681B681A687B681B6822F001028E
:103560001A6013E0FFF7CEFE0246BB68D31A052BA4
:103570000CD97B6820225A657B68032283F83520AA
:103580007B68002283F83420032315E07B681B68E6
:103590001B6803F00103002BE4D17B68DB6D3F2245
:1035A0009A40FB689A607B68012283F835207B682B
:1035B000002283F83420002318461037BD4680BD12
:1035C00080B483B000AF78607B6893F83530DBB2AD
:1035D000022B04D07B6880225A6501230CE07B68B3
:1035E000052283F835207B681B681A687B681B6896
:1035F00022F001021A60002318460C37BD465DF820
:10360000047B704780B489B000AF786039600023D4
:103610007B6100233B610023BB610023FB616BE105
:103620000122FB6902FA03F37B613B681B687A693C
:1036300013403B613A697B699A4240F05A813B688A
:103640005B6803F00303012B05D03B685B6803F064
:103650000303022B30D17B689B68BB61FB695B0075
:10366000032202FA03F3DB43BA691340BB613B68F0
:10367000DA68FB695B0002FA03F3BA691343BB61C2
:103680007B68BA699A607B685B68BB610122FB69F1
:1036900002FA03F3DB43BA691340BB613B685B6822
:1036A0001B0903F00102FB6902FA03F3BA69134331
:1036B000BB617B68BA695A603B685B6803F00303CF
:1036C000032B17D07B68DB68BB61FB695B000322BF
:1036D00002FA03F3DB43BA691340BB613B689A68A3
:1036E000FB695B0002FA03F3BA691343BB617B68B1
:1036F000BA69DA603B685B6803F00303022B23D1ED
:10370000FB69DA087B68083253F82230BB61FB6939
:1037100003F007039B000F2202FA03F3DB43BA69AD
:103720001340BB613B681A69FB6903F007039B0008
:1037300002FA03F3BA691343BB61FB69DA087B68D9
:103740000832B96943F822107B681B68BB61FB69CA
:103750005B00032202FA03F3DB43BA691340BB6147
:103760003B685B6803F00302FB695B0002FA03F34A
:10377000BA691343BB617B68BA691A603B685B68CE
:1037800003F44033002B00F0B4800023FB60604B57
:103790005B6C5F4A43F4804353645D4B5B6C03F4A2
:1037A0008043FB60FB685B4AFB699B08023352F86D
:1037B0002330BB61FB6903F003039B000F2202FA75
:1037C00003F3DB43BA691340BB617B68524A9342FF
:1037D0002BD07B68514A934225D07B68504A934254
:1037E0001FD07B684F4A934219D07B684E4A934260
:1037F00013D07B684D4A93420DD07B684C4A93426C
:1038000007D07B684B4A934201D107230EE008237F
:103810000CE006230AE0052308E0042306E0032366
:1038200004E0022302E0012300E00023FA6902F031
:10383000030292009340BA691343BB613549FB69A7
:103840009B080233BA6941F823203B4B9B68BB615C
:103850003B69DB43BA691340BB613B685B6803F4B7
:103860008013002B03D0BA693B691343BB61324A12
:10387000BB699360304BDB68BB613B69DB43BA6972
:103880001340BB613B685B6803F40013002B03D05B
:10389000BA693B691343BB61274ABB69D360264BB6
:1038A0005B68BB613B69DB43BA691340BB613B6842
:1038B0005B6803F40033002B03D0BA693B69134300
:1038C000BB611D4ABB6953601B4B1B68BB613B69F5
:1038D000DB43BA691340BB613B685B6803F4803328
:1038E000002B03D0BA693B691343BB61124ABB6921
:1038F0001360FB690133FB61FB690F2B7FF690AE10
:1039000000BF00BF2437BD465DF8047B704700BF91
:10391000003802400038014000000240000402402C
:1039200000080240000C0240001002400014024057
:1039300000180240001C0240003C014080B483B0EB
:1039400000AF78600B467B8013467B707B78002B42
:1039500003D07A887B689A6103E07B881A047B68CD
:103960009A6100BF0C37BD465DF8047B70470000CC
:1039700080B586B000AF78607B68002B01D1012351
:1039800067E27B681B6803F00103002B75D0884B4E
:103990009B6803F00C03042B0CD0854B9B6803F051
:1039A0000C03082B12D1824B5B6803F48003B3F540
:1039B000800F0BD17E4B1B6803F40033002B5BD0D0
:1039C0007B685B68002B57D1012342E27B685B6810
:1039D000B3F5803F06D1764B1B68754A43F48033BC
:1039E00013601DE07B685B68B3F5A02F0CD1704BB2
:1039F0001B686F4A43F4802313606D4B1B686C4A4D
:103A000043F4803313600BE0694B1B68684A23F46E
:103A100080331360664B1B68654A23F48023136070
:103A20007B685B68002B13D0FFF76CFC386108E003
:103A3000FFF768FC02463B69D31A642B01D90323C4
:103A400007E25B4B1B6803F40033002BF0D014E05B
:103A5000FFF758FC386108E0FFF754FC02463B6969
:103A6000D31A642B01D90323F3E1514B1B6803F4F0
:103A70000033002BF0D100E000BF7B681B6803F02F
:103A80000203002B63D04A4B9B6803F00C03002B0E
:103A90000BD0474B9B6803F00C03082B1CD1444B05
:103AA0005B6803F48003002B16D1414B1B6803F0C5
:103AB0000203002B05D07B68DB68012B01D00123BA
:103AC000C7E13B4B1B6823F0F8027B681B69DB00F6
:103AD000374913430B603AE07B68DB68002B20D04A
:103AE000344B01221A60FFF70DFC386108E0FFF744
:103AF00009FC02463B69D31A022B01D90323A8E132
:103B00002B4B1B6803F00203002BF0D0284B1B68E3
:103B100023F0F8027B681B69DB00254913430B6027
:103B200015E0244B00221A60FFF7ECFB386108E037
:103B3000FFF7E8FB02463B69D31A022B01D90323A6
:103B400087E11B4B1B6803F00203002BF0D17B685D
:103B50001B6803F00803002B36D07B685B69002BE1
:103B600016D0154B01221A60FFF7CCFB386108E034
:103B7000FFF7C8FB02463B69D31A022B01D9032386
:103B800067E10B4B5B6F03F00203002BF0D01BE0EF
:103B9000094B00221A60FFF7B5FB38610EE0FFF712
:103BA000B1FB02463B69D31A022B07D9032350E12C
:103BB0000038024000004742800E4742884B5B6F4E
:103BC00003F00203002BEAD17B681B6803F00403B7
:103BD000002B00F097800023FB75814B1B6C03F0DA
:103BE0008053002B0FD10023BB607D4B1B6C7C4AA4
:103BF00043F0805313647A4B1B6C03F08053BB601B
:103C0000BB680123FB75774B1B6803F48073002BA3
:103C100018D1744B1B68734A43F480731360FFF729
:103C200071FB386108E0FFF76DFB02463B69D31A70
:103C3000022B01D903230CE16A4B1B6803F4807348
:103C4000002BF0D07B689B68012B06D1644B1B6F67
:103C5000634A43F0010313671CE07B689B68052BF4
:103C60000CD15F4B1B6F5E4A43F0040313675C4B40
:103C70001B6F5B4A43F0010313670BE0584B1B6F4C
:103C8000574A23F001031367554B1B6F544A23F027
:103C9000040313677B689B68002B15D0FFF732FB8A
:103CA00038610AE0FFF72EFB02463B69D31A41F266
:103CB0008832934201D90323CBE0494B1B6F03F0B9
:103CC0000203002BEED014E0FFF71CFB38610AE082
:103CD000FFF718FB02463B69D31A41F28832934240
:103CE00001D90323B5E03E4B1B6F03F00203002B09
:103CF000EED1FB7D012B05D1394B1B6C384A23F0EB
:103D0000805313647B689B69002B00F0A180344BC7
:103D10009B6803F00C03082B5CD07B689B69022B2B
:103D200041D1314B00221A60FFF7ECFA386108E00C
:103D3000FFF7E8FA02463B69D31A022B01D90323A5
:103D400087E0274B1B6803F00073002BF0D17B68E2
:103D5000DA697B681B6A1A437B685B6A9B011A43BA
:103D60007B689B6A5B08013B1B041A437B68DB6A28
:103D70001B061B4913434B601B4B01221A60FFF7C4
:103D8000C1FA386108E0FFF7BDFA02463B69D31A71
:103D9000022B01D903235CE0114B1B6803F0007375
:103DA000002BF0D054E0104B00221A60FFF7AAFA63
:103DB000386108E0FFF7A6FA02463B69D31A022BE6
:103DC00001D9032345E0064B1B6803F00073002B69
:103DD000F0D13DE07B689B69012B07D1012338E0DE
:103DE0000038024000700040600047421B4B5B6897
:103DF000FB607B689B69012B28D0FB6803F4800281
:103E00007B68DB699A4221D1FB6803F03F027B6843
:103E10001B6A9A421AD1FA6847F6C07313407A684F
:103E2000526A9201934211D1FB6803F440327B68DD
:103E30009B6A5B08013B1B049A4207D1FB6803F0B5
:103E400070627B68DB6A1B069A4201D0012300E0A6
:103E5000002318461837BD4680BD00BF0038024019
:103E600080B584B000AF786039607B68002B01D1E9
:103E70000123CCE0684B1B6803F007033A689A42C1
:103E80000CD9654B3A68D2B21A70634B1B6803F0C9
:103E900007033A689A4201D00123B8E07B681B68A7
:103EA00003F00203002B20D07B681B6803F004039F
:103EB000002B05D0594B9B68584A43F4E05393605C
:103EC0007B681B6803F00803002B05D0534B9B68ED
:103ED000524A43F460439360504B9B6823F0F002D6
:103EE0007B689B684D4913438B607B681B6803F0BC
:103EF0000103002B44D07B685B68012B07D1474B43
:103F00001B6803F40033002B19D101237FE07B6889
:103F10005B68022B03D07B685B68032B07D13F4BA8
:103F20001B6803F00073002B09D101236FE03B4BAA
:103F30001B6803F00203002B01D1012367E0374B1C
:103F40009B6823F003027B685B68344913438B60F2
:103F5000FFF7D8F9F8600AE0FFF7D4F90246FB68EA
:103F6000D31A41F28832934201D903234FE02B4BFD
:103F70009B6803F00C027B685B689B009A42EBD164
:103F8000254B1B6803F007033A689A420CD2224B78
:103F90003A68D2B21A70204B1B6803F007033A68E4
:103FA0009A4201D0012332E07B681B6803F00403CE
:103FB000002B08D0194B9B6823F4E0527B68DB6828
:103FC000164913438B607B681B6803F00803002BC2
:103FD00009D0124B9B6823F460427B681B69DB00AD
:103FE0000E4913438B6000F021F802460B4B9B688F
:103FF0001B0903F00F030A49CB5C22FA03F3094AB9
:104000001360094B1B681846FEF748FF002318464B
:104010001037BD4680BD00BF003C02400038024062
:10402000C4040108280000202C0000202DE9B04F16
:1040300090B000AF00237B630023FB6300233B634E
:104040000023BB63594B9B6803F00C03082B0DD076
:10405000082B00F2A180002B02D0042B03D09BE0A0
:10406000534BBB639BE0534BBB6398E04F4B5B6888
:1040700003F03F037B634D4B5B6803F48003002B2D
:1040800028D04A4B5B689B0900223B627A623B6AFC
:10409000C3F308000021474B03FB01F2002300FBA0
:1040A00003F31344434AA0FB0212FA620A46BA62BF
:1040B000FA6A1344FB627B6B0022BB61FA61D7E9A9
:1040C0000623D7E90A01FCF7DFFD02460B4613463B
:1040D000FB6353E0354B5B689B0900223B617A61CF
:1040E0003B69C3F3080A4FF0000B52465B464FF0A2
:1040F00000004FF00001590141EAD261500102462F
:104100000B46B2EB0A0863EB0B094FF000024FF0CD
:1041100000034FEA891343EA98634FEA8812B2EB2F
:10412000080463EB09054FF000024FF00003EB00B9
:1041300043EA5473E20014461D4614EB0A033B6045
:1041400045EB0B037B604FF000024FF00003D7E913
:10415000004529468B02214643EA915321468A02B3
:10416000104619467B6B0022BB60FA60D7E9022338
:10417000FCF78AFD02460B461346FB630B4B5B685C
:104180001B0C03F0030301335B003B63FA6B3B6BD7
:10419000B2FBF3F3BB6302E0054BBB6300BFBB6B39
:1041A00018464037BD46BDE8B08F00BF003802401A
:1041B0000024F40040787D0180B400AF034B1B68FD
:1041C0001846BD465DF8047B704700BF28000020FC
:1041D00080B500AFFFF7F0FF0246054B9B689B0AD6
:1041E00003F007030349CB5C22FA03F3184680BDB2
:1041F00000380240D404010880B500AFFFF7DCFFAF
:104200000246054B9B685B0B03F007030349CB5C3D
:1042100022FA03F3184680BD00380240D404010896
:1042200080B483B000AF786039607B680F221A6079
:10423000124B9B6803F003027B685A600F4B9B682C
:1042400003F0F0027B689A600C4B9B6803F4E05229
:104250007B68DA60094B9B68DB0803F4E0527B68FB
:104260001A61074B1B6803F007023B681A6000BF26
:104270000C37BD465DF8047B704700BF0038024034
:10428000003C024080B582B000AF78607B68002BB4
:1042900001D1012341E07B6893F83D30DBB2002B74
:1042A00006D17B68002283F83C207868FEF722FD67
:1042B0007B68022283F83D207B681A687B680433A0
:1042C0001946104600F08CFD7B68012283F84620D9
:1042D0007B68012283F83E207B68012283F83F201F
:1042E0007B68012283F840207B68012283F841200B
:1042F0007B68012283F842207B68012283F84320F7
:104300007B68012283F844207B68012283F84520E2
:104310007B68012283F83D20002318460837BD46FC
:1043200080BD000080B485B000AF78607B6893F8F2
:104330003D30DBB2012B01D001234EE07B6802222D
:1043400083F83D207B681B68DA687B681B6842F055
:104350000102DA607B681B68234A934222D07B68A3
:104360001B68B3F1804F1DD07B681B681F4A9342C6
:1043700018D07B681B681E4A934213D07B681B6869
:104380001C4A93420ED07B681B681B4A934209D09B
:104390007B681B68194A934204D07B681B68184AE3
:1043A000934211D17B681B689B6803F00703FB6095
:1043B000FB68062B10D07B681B681A687B681B683B
:1043C00042F001021A6007E07B681B681A687B688C
:1043D0001B6842F001021A60002318461437BD46DC
:1043E0005DF8047B704700BF0000014000040040FE
:1043F00000080040000C0040000401400040014063
:104400000018004080B582B000AF78607B68002B58
:1044100001D1012341E07B6893F83D30DBB2002BF2
:1044200006D17B68002283F83C207868FEF740FCC8
:104430007B68022283F83D207B681A687B6804331E
:104440001946104600F0CCFC7B68012283F8462018
:104450007B68012283F83E207B68012283F83F209D
:104460007B68012283F840207B68012283F8412089
:104470007B68012283F842207B68012283F8432075
:104480007B68012283F844207B68012283F8452061
:104490007B68012283F83D20002318460837BD467B
:1044A00080BD000080B584B000AF786039603B68A3
:1044B000002B09D17B6893F83E30DBB2012B14BF8F
:1044C00001230023DBB222E03B68042B09D17B6887
:1044D00093F83F30DBB2012B14BF01230023DBB282
:1044E00015E03B68082B09D17B6893F84030DBB2BC
:1044F000012B14BF01230023DBB208E07B6893F893
:104500004130DBB2012B14BF01230023DBB2002BAF
:1045100001D001237CE03B68002B04D17B680222A0
:1045200083F83E2013E03B68042B04D17B68022211
:1045300083F83F200BE03B68082B04D17B68022204
:1045400083F8402003E07B68022283F841207B68E7
:104550001B6801223968184600F038FF7B681B6829
:104560002D4A934204D07B681B682C4A934201D1A8
:10457000012300E00023002B07D07B681B685A6CE6
:104580007B681B6842F400425A647B681B68224ABD
:10459000934222D07B681B68B3F1804F1DD07B68AB
:1045A0001B681F4A934218D07B681B681D4A9342C0
:1045B00013D07B681B681C4A93420ED07B681B6833
:1045C000164A934209D07B681B68184A934204D06C
:1045D0007B681B68164A934211D17B681B689B68F5
:1045E00003F00703FB60FB68062B10D07B681B6899
:1045F0001A687B681B6842F001021A6007E07B685A
:104600001B681A687B681B6842F001021A6000236D
:1046100018461037BD4680BD00000140000401402F
:104620000004004000080040000C00400040014031
:104630000018004080B586B000AF786039607B68B4
:10464000002B01D1012397E07B6893F83D30DBB26A
:10465000002B06D17B68002283F83C207868FEF7A7
:1046600069FA7B68022283F83D207B681B689B689F
:104670007A68126823F4804323F0070393607B6811
:104680001A687B6804331946104600F0A9FB7B6862
:104690001B689B687B617B681B689B693B617B68CF
:1046A0001B681B6AFB603B681B687A6913437B616C
:1046B0003B6923F4407323F003033B613B689A6832
:1046C0003B689B691B0213433A6913433B613B6997
:1046D00023F4406323F00C033B613B6923F47043F4
:1046E00023F0F0033B613B68DA683B68DB691B023F
:1046F00013433A6913433B613B681B691A013B68EA
:104700001B6A1B0313433A6913433B61FB6823F0A5
:104710002203FB60FB6823F08803FB603B685A6858
:104720003B685B691B011343FA681343FB607B68BA
:104730001B687A699A607B681B683A699A617B6832
:104740001B68FA681A627B68012283F846207B683E
:10475000012283F83E207B68012283F83F207B689A
:10476000012283F842207B68012283F843207B6882
:10477000012283F83D20002318461837BD4680BD2E
:1047800080B584B000AF786039607B6893F83E30C4
:10479000FB737B6893F83F30BB737B6893F84230C0
:1047A0007B737B6893F843303B733B68002B10D1DD
:1047B000FB7B012B02D17B7B012B01D0012369E024
:1047C0007B68022283F83E207B68022283F8422025
:1047D00031E03B68042B10D1BB7B012B02D13B7B2A
:1047E000012B01D0012355E07B68022283F83F2092
:1047F0007B68022283F843201DE0FB7B012B08D15C
:10480000BB7B012B05D17B7B012B02D13B7B012B99
:1048100001D001233EE07B68022283F83E207B68C2
:10482000022283F83F207B68022283F842207B68C3
:10483000022283F843203B68002B03D03B68042B03
:1048400008D00FE07B681B6801220021184600F0A9
:10485000BDFD16E07B681B6801220421184600F0AC
:10486000B5FD0EE07B681B6801220021184600F0B0
:10487000ADFD7B681B6801220421184600F0A6FDEF
:1048800000BF7B681B681A687B681B6842F00102E6
:104890001A60002318461037BD4680BD80B584B02D
:1048A00000AF78607B681B68DB68FB607B681B6817
:1048B0001B69BB60BB6803F00203002B20D0FB68C0
:1048C00003F00203002B1BD07B681B686FF0020211
:1048D0001A617B6801221A777B681B689B6903F069
:1048E0000303002B03D0786800F05BFA05E07868DA
:1048F00000F04DFA786800F05EFA7B6800221A77C3
:10490000BB6803F00403002B20D0FB6803F0040312
:10491000002B1BD07B681B686FF004021A617B6858
:1049200002221A777B681B689B6903F44073002B93
:1049300003D0786800F035FA05E0786800F027FACF
:10494000786800F038FA7B6800221A77BB6803F0B9
:104950000803002B20D0FB6803F00803002B1BD0BA
:104960007B681B686FF008021A617B6804221A7763
:104970007B681B68DB6903F00303002B03D07868B6
:1049800000F00FFA05E0786800F001FA786800F0AE
:1049900012FA7B6800221A77BB6803F01003002B21
:1049A00020D0FB6803F01003002B1BD07B681B6832
:1049B0006FF010021A617B6808221A777B681B6807
:1049C000DB6903F44073002B03D0786800F0E9F949
:1049D00005E0786800F0DBF9786800F0ECF97B68B6
:1049E00000221A77BB6803F00103002B0CD0FB6890
:1049F00003F00103002B07D07B681B686FF00102F6
:104A00001A617868FDF762FABB6803F08003002B37
:104A10000CD0FB6803F08003002B07D07B681B6879
:104A20006FF080021A61786800F07CFDBB6803F0CB
:104A30004003002B0CD0FB6803F04003002B07D091
:104A40007B681B686FF040021A61786800F0BDF95E
:104A5000BB6803F02003002B0CD0FB6803F020039D
:104A6000002B07D07B681B686FF020021A61786802
:104A700000F04EFD00BF1037BD4680BD80B586B04A
:104A800000AFF860B9607A600023FB75FB6893F8AB
:104A90003C30012B01D10223AEE0FB68012283F8F8
:104AA0003C207B680C2B00F29F8001A252F823F07F
:104AB000E54A0008E94B0008E94B0008E94B00080B
:104AC000254B0008E94B0008E94B0008E94B0008BA
:104AD000674B0008E94B0008E94B0008E94B000868
:104AE000A74B0008FB681B68B968184600F024FA59
:104AF000FB681B689A69FB681B6842F008029A61B0
:104B0000FB681B689A69FB681B6822F004029A61C3
:104B1000FB681B689969BB681A69FB681B680A43D4
:104B20009A6164E0FB681B68B968184600F074FA83
:104B3000FB681B689A69FB681B6842F400629A6113
:104B4000FB681B689A69FB681B6822F480629A61A3
:104B5000FB681B689969BB681B691A02FB681B68C4
:104B60000A439A6143E0FB681B68B968184600F085
:104B7000C9FAFB681B68DA69FB681B6842F0080227
:104B8000DA61FB681B68DA69FB681B6822F00402C3
:104B9000DA61FB681B68D969BB681A69FB681B6826
:104BA0000A43DA6123E0FB681B68B968184600F025
:104BB0001DFBFB681B68DA69FB681B6842F4006236
:104BC000DA61FB681B68DA69FB681B6822F48062A3
:104BD000DA61FB681B68D969BB681B691A02FB684C
:104BE0001B680A43DA6102E00123FB7500BFFB6822
:104BF000002283F83C20FB7D18461837BD4680BD57
:104C000080B584B000AF786039600023FB737B68A7
:104C100093F83C30012B01D10223B4E07B680122E0
:104C200083F83C207B68022283F83D207B681B6868
:104C30009B68BB60BB6823F07703BB60BB6823F451
:104C40007F43BB607B681B68BA689A603B681B68DF
:104C5000B3F5005F3ED0B3F5005F00F28780B3F597
:104C6000805F00F08680B3F5805F7FD8702B1AD00C
:104C7000702B7BD8602B50D0602B77D8502B3CD03A
:104C8000502B73D8402B58D0402B6FD8302B64D08A
:104C9000302B6BD8202B60D0202B67D8002B5CD01A
:104CA000102B5AD062E07B6818683B6899683B68B3
:104CB0005A683B68DB6800F069FB7B681B689B688F
:104CC000BB60BB6843F07703BB607B681B68BA6856
:104CD0009A604FE07B6818683B6899683B685A683F
:104CE0003B68DB6800F052FB7B681B689A687B6856
:104CF0001B6842F480429A603CE07B6818683B681D
:104D000059683B68DB681A4600F0C6FA7B681B6886
:104D10005021184600F01FFB2CE07B6818683B68A8
:104D200059683B68DB681A4600F0E5FA7B681B6847
:104D30006021184600F00FFB1CE07B6818683B6898
:104D400059683B68DB681A4600F0A6FA7B681B6866
:104D50004021184600F0FFFA0CE07B681A683B68B7
:104D60001B681946104600F0F6FA03E00123FB73B6
:104D700000E000BF7B68012283F83D207B680022B1
:104D800083F83C20FB7B18461037BD4680BD80B4BD
:104D900083B000AF786000BF0C37BD465DF8047B80
:104DA000704780B483B000AF786000BF0C37BD4659
:104DB0005DF8047B704780B483B000AF786000BFBB
:104DC0000C37BD465DF8047B704780B483B000AFFC
:104DD000786000BF0C37BD465DF8047B704700006B
:104DE00080B485B000AF786039607B681B68FB6079
:104DF0007B68464A934213D07B68B3F1804F0FD053
:104E00007B68434A93420BD07B68424A934207D067
:104E10007B68414A934203D07B68404A934208D161
:104E2000FB6823F07003FB603B685B68FA68134320
:104E3000FB607B68354A93422BD07B68B3F1804F8F
:104E400027D07B68324A934223D07B68314A934211
:104E50001FD07B68304A93421BD07B682F4A934215
:104E600017D07B682E4A934213D07B682D4A934219
:104E70000FD07B682C4A93420BD07B682B4A93421D
:104E800007D07B682A4A934203D07B68294A934221
:104E900008D1FB6823F44073FB603B68DB68FA6869
:104EA0001343FB60FB6823F080023B685B6913439C
:104EB000FB607B68FA681A603B689A687B68DA6214
:104EC0003B681A687B689A627B68104A934203D0F9
:104ED0007B68124A934203D13B681A697B681A6364
:104EE0007B6801225A617B681B6903F00103012B77
:104EF00005D17B681B6923F001027B681A6100BF42
:104F00001437BD465DF8047B704700BF00000140C8
:104F10000004004000080040000C00400004014074
:104F2000004001400044014000480140001800409A
:104F3000001C00400020004080B487B000AF7860C3
:104F400039607B681B6A7B617B681B6A23F0010206
:104F50007B681A627B685B683B617B689B69FB606E
:104F6000FB6823F07003FB60FB6823F00303FB6026
:104F70003B681B68FA681343FB607B6923F00203FC
:104F80007B613B689B687A6913437B617B68204A3D
:104F9000934203D07B681F4A93420CD17B6923F074
:104FA00008037B613B68DB687A6913437B617B693B
:104FB00023F004037B617B68154A934203D07B682E
:104FC000144A934211D13B6923F480733B613B69DE
:104FD00023F400733B613B685B693A6913433B61AF
:104FE0003B689B693A6913433B617B683A695A6045
:104FF0007B68FA689A613B685A687B685A637B6889
:105000007A691A6200BF1C37BD465DF8047B7047A1
:10501000000001400004014080B487B000AF786018
:1050200039607B681B6A7B617B681B6A23F0100216
:105030007B681A627B685B683B617B689B69FB608D
:10504000FB6823F4E043FB60FB6823F44073FB60E0
:105050003B681B681B02FA681343FB607B6923F003
:1050600020037B613B689B681B017A6913437B616A
:105070007B68224A934203D07B68214A93420DD138
:105080007B6923F080037B613B68DB681B017A69E5
:1050900013437B617B6923F040037B617B68174A84
:1050A000934203D07B68164A934213D13B6923F4A1
:1050B00080633B613B6923F400633B613B685B6950
:1050C0009B003A6913433B613B689B699B003A69CB
:1050D00013433B617B683A695A607B68FA689A615E
:1050E0003B685A687B689A637B687A691A6200BF7A
:1050F0001C37BD465DF8047B704700BF00000140CF
:105100000004014080B487B000AF786039607B68EC
:105110001B6A7B617B681B6A23F480727B681A625E
:105120007B685B683B617B68DB69FB60FB6823F045
:105130007003FB60FB6823F00303FB603B681B68A4
:10514000FA681343FB607B6923F400737B613B685F
:105150009B681B027A6913437B617B68214A9342F7
:1051600003D07B68204A93420DD17B6923F400630E
:105170007B613B68DB681B027A6913437B617B6957
:1051800023F480637B617B68164A934203D07B687B
:10519000154A934213D13B6923F480533B613B6929
:1051A00023F400533B613B685B691B013A6913437D
:1051B0003B613B689B691B013A6913433B617B6818
:1051C0003A695A607B68FA68DA613B685A687B68BA
:1051D000DA637B687A691A6200BF1C37BD465DF8E6
:1051E000047B7047000001400004014080B487B098
:1051F00000AF786039607B681B6A3B617B681B6A23
:1052000023F480527B681A627B685B687B617B68F1
:10521000DB69FB60FB6823F4E043FB60FB6823F47D
:105220004073FB603B681B681B02FA681343FB601A
:105230003B6923F400533B613B689B681B033A695D
:1052400013433B617B68124A934203D07B68114A47
:10525000934209D17B6923F480437B613B685B699E
:105260009B017A6913437B617B687A695A607B682A
:10527000FA68DA613B685A687B681A647B683A6945
:105280001A6200BF1C37BD465DF8047B704700BF43
:10529000000001400004014080B487B000AFF86016
:1052A000B9607A60FB681B6A7B61FB681B6A23F04C
:1052B0000102FB681A62FB689B693B613B6923F052
:1052C000F0033B617B681B013A6913433B617B69D7
:1052D00023F00A037B617A69BB6813437B61FB6837
:1052E0003A699A61FB687A691A6200BF1C37BD4649
:1052F0005DF8047B704780B487B000AFF860B96098
:105300007A60FB681B6A7B61FB681B6A23F01002F2
:10531000FB681A62FB689B693B613B6923F470433D
:105320003B617B681B033A6913433B617B6923F054
:10533000A0037B61BB681B017A6913437B61FB6837
:105340003A699A61FB687A691A6200BF1C37BD46E8
:105350005DF8047B704780B485B000AF7860396039
:105360007B689B68FB60FB6823F07003FB603A6816
:10537000FB68134343F00703FB607B68FA689A609D
:1053800000BF1437BD465DF8047B704780B487B01A
:1053900000AFF860B9607A603B60FB689B687B6136
:1053A0007B6923F47F437B613B681A027B681A4365
:1053B000BB6813437A6913437B61FB687A699A601F
:1053C00000BF1C37BD465DF8047B704780B487B0D2
:1053D00000AFF860B9607A60BB6803F01F03012278
:1053E00002FA03F37B61FB681A6A7B69DB431A40AC
:1053F000FB681A62FB681A6ABB6803F01F037968CE
:1054000001FA03F31A43FB681A6200BF1C37BD465A
:105410005DF8047B7047000080B485B000AF786011
:1054200039607B6893F83C30012B01D102235AE0AC
:105430007B68012283F83C207B68022283F83D20B0
:105440007B681B685B68FB607B681B689B68BB6054
:10545000FB6823F07003FB603B681B68FA6813432A
:10546000FB607B681B68FA685A607B681B68214A8E
:10547000934222D07B681B68B3F1804F1DD07B68BC
:105480001B681D4A934218D07B681B681B4A9342D5
:1054900013D07B681B681A4A93420ED07B681B6846
:1054A000184A934209D07B681B68174A934204D07C
:1054B0007B681B68154A93420CD1BB6823F08003BC
:1054C000BB603B685B68BA681343BB607B681B6862
:1054D000BA689A607B68012283F83D207B680022CD
:1054E00083F83C20002318461437BD465DF8047B42
:1054F000704700BF00000140000400400008004069
:10550000000C004000040140004001400018004031
:1055100080B483B000AF786000BF0C37BD465DF843
:10552000047B704780B483B000AF786000BF0C3755
:10553000BD465DF8047B704780B582B000AF7860EF
:105540007B68002B01D1012342E07B6893F8413056
:10555000DBB2002B06D17B68002283F840207868FC
:10556000FDF74CFC7B68242283F841207B681B6894
:10557000DA687B681B6822F40052DA60786800F011
:1055800075FD7B681B681A697B681B6822F4904272
:105590001A617B681B685A697B681B6822F02A02C3
:1055A0005A617B681B68DA687B681B6842F40052AA
:1055B000DA607B6800225A647B68202283F84120ED
:1055C0007B68202283F842207B6800225A630023F4
:1055D00018460837BD4680BD80B58AB002AFF86076
:1055E000B9603B601346FB8000237B61FB6893F846
:1055F0004230DBB2202B40F08180BB68002B02D010
:10560000FB88002B01D1012379E0FB6800225A645A
:10561000FB68222283F84220FB6800221A63FDF710
:1056200071FE7861FB68FA889A85FB68FA88DA85EA
:10563000FB689B68B3F5805F08D1FB681B69002B92
:1056400004D10023FB61BB68BB6103E0BB68FB6165
:105650000023BB6147E03B6800937B690022202167
:10566000F86800F00DFB0346002B05D0FB682022F4
:1056700083F84220032342E0FB69002B0CD1FB6836
:105680001B685B689BB2C3F308039AB2BB691A80BC
:10569000BB690233BB611FE0FB689B68B3F5805FA9
:1056A00007D0FB689B68002B0AD1FB681B69002BA5
:1056B00006D1FB681B685B68DAB2FB691A7008E008
:1056C000FB681B685B68DBB203F07F03DAB2FB693F
:1056D0001A70FB690133FB61FB68DB8D9BB2013BF8
:1056E0009AB2FB68DA85FB68DB8D9BB2002BB2D1E6
:1056F000FB68202283F84220002300E002231846A2
:105700002037BD4680BD000080B5BAB000AF7860DC
:105710007B681B681B68C7F8E4307B681B68DB6824
:10572000C7F8E0307B681B685B69C7F8DC30002392
:10573000C7F8D8300023C7F8D430D7F8E43003F0E6
:105740000F03C7F8D830D7F8D830002B0FD1D7F8CF
:10575000E43003F02003002B09D0D7F8E03003F049
:105760002003002B03D0786800F0C2FB5BE2D7F87F
:10577000D830002B00F0DE80D7F8DC3003F00103D6
:10578000002B06D1D7F8E03003F49073002B00F023
:10579000D180D7F8E43003F00103002B0BD0D7F809
:1057A000E03003F48073002B05D07B685B6C43F022
:1057B00001027B685A64D7F8E43003F00403002B3D
:1057C0000BD0D7F8DC3003F00103002B05D07B6849
:1057D0005B6C43F002027B685A64D7F8E43003F054
:1057E0000203002B0BD0D7F8DC3003F00103002BB1
:1057F00005D07B685B6C43F004027B685A64D7F881
:10580000E43003F00803002B11D0D7F8E03003F0A8
:105810002003002B05D1D7F8DC3003F00103002B67
:1058200005D07B685B6C43F008027B685A647B6838
:105830005B6C002B00F0F281D7F8E43003F020031A
:10584000002B08D0D7F8E03003F02003002B02D063
:10585000786800F04DFB7B681B685B6903F04003D0
:10586000402B0CBF01230023DBB2C7F8D4307B6888
:105870005B6C03F00803002B03D1D7F8D430002B66
:105880004FD0786800F055FA7B681B685B6903F0BD
:105890004003402B41D17B681B681433C7F89C3010
:1058A000D7F89C3053E8003FC7F89830D7F89830C5
:1058B00023F04003C7F8D0307B681B681433D7F857
:1058C000D020C7F8A820C7F8A430D7F8A410D7F87C
:1058D000A82041E80023C7F8A030D7F8A030002B5B
:1058E000D9D17B68DB6B002B13D07B68DB6B7E4AE6
:1058F0001A657B68DB6B1846FDF762FE0346002BDA
:1059000016D07B68DB6B1B6D7A68D26B10469847AC
:105910000EE0786800F09EF90AE0786800F09AF9E5
:1059200006E0786800F096F97B6800225A6475E119
:1059300000BF73E17B681B6B012B40F04F81D7F8F0
:10594000E43003F01003002B00F04881D7F8E0307A
:1059500003F01003002B00F041810023BB607B6843
:105960001B681B68BB607B681B685B68BB60BB68AF
:105970007B681B685B6903F04003402B40F0B680F6
:105980007B68DB6B1B685B68A7F8BE30B7F8BE307E
:10599000002B00F045817B689B8DB7F8BE209A42B2
:1059A00080F03E817B68B7F8BE20DA857B68DB6BD0
:1059B000DB69B3F5807F00F088807B681B680C335F
:1059C000C7F88830D7F8883053E8003FC7F88430EC
:1059D000D7F8843023F48073C7F8B8307B681B682D
:1059E0000C33D7F8B820C7F89420C7F89030D7F810
:1059F0009010D7F8942041E80023C7F88C30D7F8EE
:105A00008C30002BD9D17B681B6814337B677B6F8C
:105A100053E8003F3B673B6F23F00103C7F8B43006
:105A20007B681B681433D7F8B420C7F88020FB6765
:105A3000F96FD7F8802041E80023BB67BB6F002BCC
:105A4000E1D17B681B6814333B663B6E53E8003F33
:105A5000FB65FB6D23F04003C7F8B0307B681B6823
:105A60001433D7F8B020FA66BB66B96EFA6E41E817
:105A700000237B667B6E002BE3D17B68202283F8BA
:105A800042207B6800221A637B681B680C33FB642E
:105A9000FB6C53E8003FBB64BB6C23F01003C7F8FA
:105AA000AC307B681B680C33D7F8AC20BA657B65DB
:105AB000796DBA6D41E800233B653B6D002BE3D166
:105AC0007B68DB6B1846FDF70BFD7B6802225A638F
:105AD0007B689A8D7B68DB8D9BB2D31A9BB219468B
